:020000040800F2
:10000000A8750020A1B200085FC50108CDB20008A4
:10001000CDB20008CDB20008CDB20008000000004B
:1000200000000000000000000000000039B00008DF
:10003000CDB2000800000000F1AF0008E9A30008FD
:1000400079B2000879B2000879B2000879B20008E4
:1000500079B2000879B2000879B2000879B20008D4
:1000600079B2000879B2000879B2000879B20008C4
:1000700079B2000879B2000879B2000879B20008B4
:1000800079B2000879B2000879B2000879B20008A4
:1000900079B2000879B2000879B2000879B2000894
:1000A00079B2000879B2000879B2000879B2000884
:1000B00079B2000879B2000879B2000879B2000874
:1000C00079B2000879B2000879B2000879B2000864
:1000D00079B2000879B2000879B2000879B2000854
:1000E00079B2000879B2000879B2000879B2000844
:1000F00079B2000879B2000879B2000879B2000834
:1001000079B2000879B2000879B2000879B2000823
:1001100079B2000879B2000879B2000879B2000813
:1001200079B2000879B2000879B2000879B2000803
:1001300079B2000879B2000879B2000879B20008F3
:1001400079B2000879B2000879B2000879B20008E3
:1001500079B2000879B2000879B2000879B20008D3
:1001600079B2000879B2000879B2000879B20008C3
:1001700079B2000879B2000879B2000879B20008B3
:0801800079B2000879B2000811
:1001880053B94AB9002908BF00281CBF4FF0FF31F6
:100198004FF0FF3000F06EB9ADF1080C6DE904CEF8
:1001A80000F006F8DDF804E0DDE9022304B070474A
:1001B8002DE9F047089D0E4604468C46002B40F07A
:1001C80081808A42174645D9B2FA82F24AB1C2F111
:1001D800200106FA02F320FA01F1974041EA030CE4
:1001E80094404FEA174E230CBCFBFEF6B9B20EFB47
:1001F80016CC43EA0C4306FB01F0984209D9FB18D8
:1002080006F1FF3C80F01581984240F21281023ECF
:100218003B441B1AA4B2B3FBFEF00EFB103344EAB6
:10022800034400FB01F1A14209D93C1900F1FF3355
:1002380080F00181A14240F2FE8002383C44641AF9
:1002480040EA064000211DB1D4400023C5E900431F
:10025800BDE8F08702B9FFDEB2FA82F2002A4FD178
:10026800CB1B4FEA174E1FFA87F80121B3FBFEFCA0
:10027800260C0EFB1C3346EA034608FB0CF3B3427C
:1002880007D9BE190CF1FF3002D2B34200F2EB805D
:100298008446F61AA3B2B6FBFEF00EFB106643EADC
:1002A800064408FB00F8A04507D93C1900F1FF33C4
:1002B80002D2A04500F2D2801846A4EB080440EA16
:1002C8000C40C0E78B4208D9002D00F0AF80002118
:1002D800C5E900060846BDE8F087B3FA83F10029AE
:1002E80049D1B34202D3824200F2BB80841A66EB42
:1002F800030301209C46002DAAD0C5E9004CA7E7BE
:10030800C2F120039740D8409140DE404FEA174E93
:1003180008434FEA104CB6FBFEF11FFA87F80EFBB4
:1003280011664CEA064601FB08F3B34204FA02F4EC
:1003380009D9BE1901F1FF3C80F08E80B34240F22A
:100348008B8002393E44F31A86B2B3FBFEF00EFBF3
:10035800103346EA034600FB08F3B34207D9BE1937
:1003680000F1FF3C74D2B34272D902383E44F31A0A
:1003780040EA01417AE7C1F1200703FA01F422FAC1
:1003880007F31C4320FA07F906FA01F34FEA144C65
:10039800FE4049EA03094FEA1943B6FBFCFE1FFA7F
:1003A80084F80CFB1E6643EA06460EFB08FAB245C3
:1003B80002FA01F200FA01F308D9A6190EF1FF308A
:1003C80048D2B24546D9AEF1020E2644A6EB0A063B
:1003D8001FFA89F9B6FBFCF00CFB106649EA0646E1
:1003E80000FB08F8B04507D9A61900F1FF3C2DD24B
:1003F800B0452BD90238264440EA0E40A6EB080641
:10040800A0FB02894E45C446CE4618D315D075B315
:10041800B3EB0C0266EB0E0606FA07F722FA01F3B5
:10042800CE401F43C5E90076002111E7294628463A
:100438000EE76646EDE6184601E74345E7D2B8EB16
:10044800020C69EB04040138A646E0E76046D3E7EE
:1004580060468CE78646B9E7614674E702383C4453
:100468002BE7084647E7ACF1020C3E4411E7294662
:10047800EEE600BF704700BF08B50B4BBFF35B8FBC
:1004880053E8002F42F0010143E800100028F7D19B
:10049800BFF35B8F12F0010F00D008BDA3F1080174
:1004A800024821F003FDF8E728010020103300205E
:1004B80000B583B021F0EEFF0A220023FFF760FEAB
:1004C800064B186042F210720023CDE9002304485D
:1004D80018F0A6FE002003B05DF804FBA833002046
:1004E800B00E002008B5034B187800F043FB19F054
:1004F80079F908BD6259002008B5054B1B7883427D
:1005080004D0034B1870FFF7EDFF08BD0020FCE78F
:100518006259002008B521F0BDFF0A220023FFF729
:100528002FFE034B18600020FFF7E6FF08BD00BF51
:10053800A833002008B521F0ADFF0A220023FFF7F9
:100548001FFE064B1B68C01A47F23053984200DC66
:1005580008BD0120FFF7D0FFFAE700BFA83300204D
:10056800F0B58DB019E0214B04932B46052269465E
:100578001F4806F0E5F808948DF8246021F08AFFFA
:100588000A220023FFF7FCFDCDE90A010CAB13E9B1
:100598000F0000F0FBFA19F025F90022002305A945
:1005A800144817F01DFEF8B9079FB7FA87F67609C1
:1005B8000699059800F08CF80446042363F30205B5
:1005C8006FF3C5050C4B0D4A9B1AC3F3C90363F3BC
:1005D8008F150B4B0093059B0193069B0293039089
:1005E800002FC0D1074BBFE70DB0F0BDB82D0208F2
:1005F800C02D020828100020602C0208902B020849
:10060800142E0208B02D020800B585B0019102929F
:1006180083F0010303930022002301A90D4817F07A
:1006280087FD0D4BBFF35B8F53E8002F42F00101AC
:1006380043E800100028F7D1BFF35B8F12F0010FD9
:1006480002D005B05DF804FBA3F10801034821F0CE
:100658002DFCF6E728100020B433002010330020CA
:1006680010B517F0F1FA88B10446134B00221A604E
:10067800124959609A6083681B6811499847A368B2
:100688009B68BBB120469847002010BD4FF0000181
:10069800012363F302016FF3C5010A4B0A4A9B1A4F
:1006A800C3F3C90363F38F11084806F0B5F86FF078
:1006B8001500EAE70020E8E7AC33002069050008E8
:1006C80011060008602C0208902B0208F42D02087D
:1006D80000EB400001EB8000014B53F8200070470D
:1006E8002C2E0208F0B583B005461A4A52F820307D
:1006F800013342F8203004274FF0000267F302026A
:100708006FF3C502144C1549641AC4F3C90464F3A1
:100718008F12134EADF8002002463146114805F0FD
:100728003FFE012202FA05F50F4B1A782A43D2B28E
:100738001A700E4B5A704FF0000367F302036FF301
:10074800C50364F38F133146094805F075FF00208F
:1007580003B0F0BDB8330020602C0208902B0208CB
:100768007C2F0208E02E0208635900203C0100207B
:10077800FC2E020870B582B00446344B53F8203082
:10078800002B35DD013B314E46F820304FF000019B
:10079800042262F302016FF3C5012D4A2D48121A93
:1007A800C2F3C90262F38F112B4DADF80010224637
:1007B80029462A4805F0F4FD56F824306BB3284B37
:1007C8001A78284B5A704FF00003042161F3020392
:1007D8006FF3C5031E491F48091AC1F3C90161F324
:1007E8008F132946204805F027FF002002B070BD6E
:1007F8004FF00002012363F302026FF3C502144BAA
:1008080014495B1AC3F3C90363F38F1201461748EF
:1008180005F092FE6FF01500E8E7042262F3020388
:100828006FF3C5030A4A0B49521AC2F3C90262F3AD
:100838008F13224629460E4805F0FEFE0120A040EF
:10084800074B1C7824EA00041C70B8E7B833002072
:10085800602C0208902B0208942F0208442F0208EB
:10086800635900203C010020FC2E0208182F0208C2
:10087800602F020808B50C4B1A7802430B4B5A70CC
:100888004FF00003042161F302036FF3C503084925
:100898000848091AC1F3C90161F38F1306490748CB
:1008A80005F0CAFE002008BD635900203C01002065
:1008B800602C0208902B0208AC2F0208FC2E0208BC
:1008C80008B50C4B1A780C4B5A704FF000030421F2
:1008D80061F302036FF3C50308490948091AC1F314
:1008E800C90161F38F130749074805F0A5FE0020E9
:1008F80008BD00BF635900203C010020602C02089D
:10090800902B0208D02F0208FC2E020808B5A0F18F
:10091800E003072B01D9002305E02030C0B2FFF720
:10092800E1FE0FE00133052B0BDC074A1A44D278AD
:10093800002AF7D1044A1A44D0700028F2D00020C7
:1009480000E0002008BD00BF3C01002008B5A0F170
:10095800E003072B01D9002305E02030C0B2FFF7E0
:1009680009FF0DE00133052B09DC064A1A44D27849
:100978008242F7D1034A1A440021D170F2E70020DD
:1009880008BD00BF3C01002008B50822002102482C
:100998001BF0AEFF08BD00BF3D010020002300E0B2
:1009A8000133052B0DDC084A02EB4302B2F80120A3
:1009B800002AF5D1044A02EB4302A2F801000028FC
:1009C800EED00020704700BF2C010020002300E07B
:1009D8000133052B0DDC084A02EB4302B2F8012073
:1009E8008242F5D1044A02EB430200215170917012
:1009F800EEE70020704700BF2C01002008B50C224C
:100A0800002102481BF074FF08BD00BF2D01002023
:100A1800004870473C010020004870472C01002026
:100A2800F8B506462F4F304BFF1AFF100C4600252D
:100A38002CE04FF00003042262F302036FF3C503B6
:100A48002A4A2B49521AC2F3C90262F38F132A4663
:100A58002849294805F0F0FD12E04FF00002042370
:100A680063F302026FF3C502204B21495B1AC3F3FB
:100A7800C90363F38F121F49204805F05DFD002567
:100A8800304621F0FEFD2846F8BD0134FBB29C42F9
:100A9800F6DA154B03EBC40153F8342033689A4255
:100AA800F3D14B681B6830469847051EC1DB002D03
:100AB800EBDD012DD1D0022DE7D14FF00002042348
:100AC80063F302026FF3C502084B09495B1AC3F3CB
:100AD800C90363F38F120749094805F02DFD3471E6
:100AE8000025D0E75C84020814840208602C020800
:100AF800902B020884300208F42F020818300208EC
:100B08003830020870B5164D164BED1AED1000235B
:100B180000E00133EAB29A420EDD124A02EBC30644
:100B280052F8334002689442F3D172688A42F0D195
:100B3800D9B2FFF775FF12E04FF00001022363F30B
:100B480002016FF3C501084B084A9B1AC3F3C90396
:100B580063F38F11064805F05FFE6FF0150070BD56
:100B68005C84020814840208602C0208902B020896
:100B78005830020810B504460C2018F0F1FD024A5E
:100B88000260047210BD00BFC030020870B584B0A6
:100B98006C4684E80F00182018F0E2FD064605466A
:100BA800044B45F8083B94E80F0085E80F003046F1
:100BB80004B070BDE03002080268034B9A4201D1CC
:100BC8000830704700207047E030020870B584B0E4
:100BD8006C4684E80F00182018F0C2FD064605464A
:100BE800044B45F8083B94E80F0085E80F003046B1
:100BF80004B070BDFC30020884B070B504AC84E861
:100C08000F00202018F0ACFD06460446074B44F8B8
:100C1800083B04AD0FCD0FC495E8030084E803003A
:100C28003046BDE8704004B0704700BF1C31020870
:100C38000268034B9A4201D1083070470020704780
:100C48001C31020810B582B06C4684E803001020FD
:100C580018F086FD03460246044942F8081B94E84A
:100C6800030082E80300184602B010BD783102087C
:100C780010B504460C2018F073FD024A0260047295
:100C880010BD00BF9831020810B504460C2018F0BA
:100C980067FD024A0260047210BD00BFB831020845
:100CA80082B070B588B004460CA981E80C004FF0FA
:100CB8000002042363F302026FF3C502234B2449A5
:100CC8005B1AC3F3C90363F38F12ADF800204368BE
:100CD8000D9A2049204805F063FB6368DDE90E455D
:100CE800C3F3074213F47F0F00D10722D6B299B29B
:100CF800A1F1E000072803D8072E21D0002000E04A
:100D08000020F8B1180E0023ADF8082003918DF8E3
:100D180010308DF8110001238DF81230CDE9064509
:100D280008AB13E903008DE8030002AB0FCBFFF714
:100D380063FF18F057FD08B0BDE8704002B0704777
:100D48000120DEE71B0E0020DEE700BF602C020852
:100D5800902B0208DC310208BC31020882B070B561
:100D680088B004460CA981E80C004FF00002042367
:100D780063F302026FF3C502234B24495B1AC3F3E2
:100D8800C90363F38F12ADF8002043680D9A204918
:100D9800204805F005FB6368DDE90E45C3F307420B
:100DA80013F47F0F00D10722D6B299B2A1F1E00067
:100DB800072803D8072E21D0002000E00020F8B132
:100DC800180E0023ADF8082003918DF810308DF827
:100DD800110000238DF81230CDE9064508AB13E960
:100DE80003008DE8030002AB0FCBFFF705FF18F0F7
:100DF800F9FC08B0BDE8704002B070470120DEE79A
:100E08001B0E0020DEE700BF602C0208902B0208B2
:100E1800F8310208BC3102080023272B0ADC074AF4
:100E280052F823200AB10133F7E7044A42F82300B5
:100E3800002070476FF00B00704700BFD8330020C8
:100E48000023092B0CDC582202FB03F205498A58BF
:100E5800824201D00133F4E7582202FB03107047A5
:100E6800002070479812002070B405460023092B13
:100E78001DDC582404FB03F40E48045942F20F7099
:100E8800844212D10B4E582404FB03F3F018F5509A
:100E9800002303764376059BC36141608260DDE9E8
:100EA8000323C0E9042370BC70470133DFE7002047
:100EB800F9E700BF9812002070B5054600242646C1
:100EC80000E00134272C0FDC084B53F8240058B1FC
:100ED800FFF772FE0028F4D00268AA42F1D1027925
:100EE800002AEED00646ECE7304670BDD833002025
:100EF80030B585B00446FFF79BFE1D4B19680029E5
:100F080031D002784368E03B072B03D8072A26D064
:100F1800002300E0002343B34FF00003042262F3F0
:100F280002036FF3C503134A134D521BC2F3C902E0
:100F380062F38F13114A00920A6801924268029282
:100F4800827A72B10E4A0392042269460D4805F06E
:100F5800F7FB2046FFF760FF022005B030BD0123F4
:100F6800D9E7094AEFE70020F7E70020F5E700BFD7
:100F780078340020602C0208902B020820360208E2
:100F8800503202085C320208583202082D4B1B68A6
:100F980003B17047F0B583B000240BE02A4BADF8DD
:100FA80000602A492A4805F0FBF92A492846FFF734
:100FB800A9FD0134272C42DC274B53F82450002D7F
:100FC8003DD0002243F824201E4B1B681BB164202F
:100FD800002117F017FE2846FFF7EEFD88B104231D
:100FE80063F302066FF3C5061C4B1D4A9B1AC3F335
:100FF800C90363F38F1602680379002BCED0194B0F
:10100800CDE72846FFF714FE0028CED0042363F36B
:1010180002076FF3C507114B114A9B1AC3F3C903A3
:1010280063F38F174268837A3BB10E4BADF80070BB
:1010380006490D4805F0B4F9B7E7034BF6E703B0E6
:10104800F0BD00BF78340020702F02089C350208DC
:10105800883202084C360208D8330020602C020877
:10106800902B020880320208BC320208037E002B53
:1010780040F0998030B593B004460D464A4B1B6842
:1010880083426CD1C3691B7A012B04D0022B06D092
:101098004BB918F0E6FB2946204618F0C6FB29464E
:1010A800204618F0D1FB237E002B56D04FF00003CA
:1010B800042262F302036FF3C5033C4A3C49521A07
:1010C800C2F3C90262F38F133A4A06922268079262
:1010D800627E002A56D0384A0892E269127A012ABA
:1010E80054D0022A54D0002A4ED0344A09920A9584
:1010F800052206A9324805F023FB00232A4A13607B
:101108000E9323680F93D4E90423CDE91023637E5B
:10111800002B3FD0E3695B68DB680B9363680C9333
:1011280000230D9302AC12AB13E90F0084E80F0003
:1011380006AD94E80F0085E80F000B9816F084FDC3
:1011480083681C683CB1099908988DE80300079BDF
:10115800069A0BA8A047FFF719FF13B030BD4FF050
:101168000002042363F302026FF3C5020F4B104918
:101178005B1AC3F3C90363F38F120E49114805F0D4
:10118800DBF9EAE7104AA7E7104AAFE7104AADE7EC
:10119800104AABE7E3695B681B680B93A3680C9381
:1011A80000230D93BEE7704778340020602C0208B6
:1011B800902B0208B435020868330208F832020896
:1011C8007033020824330208E43402081433020896
:1011D80008330208E8320208F0B585B00546FFF783
:1011E800EBFC0446594B1868002840D00268236875
:1011F8009A4251D0D4E90267D0E90423C169096849
:10120800521843EBE173B242BB416EDB2379002BEA
:101218006FD04FF00003042262F302036FF3C5039B
:101228004B4A4C49521AC2F3C90262F38F134A4A15
:101238000092464A12681268019222680292227944
:10124800002A7ED0454A039204226946444805F0A4
:1012580077FA2846FFF7E0FD3C4B18682379002B06
:1012680071D00121FFF702FF022005B0F0BD4FF059
:101278000003042262F302036FF3C503344A3549BD
:10128800521AC2F3C90262F38F13226832493548F1
:1012980005F0D2F90020E8E7237993B14FF0000177
:1012A800012363F302016FF3C501294B294A9B1AF5
:1012B800C3F3C90363F38F112B4805F0ADFA00207F
:1012C800D3E74FF00003042161F302036FF3C50372
:1012D8001F492048091AC1F3C90161F38F131E4938
:1012E800224805F0A9F90020BFE70321FFF7BEFE59
:1012F8008CE72068FFF7E0FD00288AD14FF0000353
:10130800042262F302036FF3C503114A1149521A0A
:10131800C2F3C90262F38F130F4A00920B4A126894
:101328001268019222680292227942B10B4A039212
:10133800042269460E4805F003FA002095E70D4A95
:10134800F5E70C4A7FE702218CE700BF78340020DC
:10135800602C0208902B020800360208503202085E
:101368005834020890330208C033020808340208CF
:101378003C3402085832020882B0F0B593B018A97C
:1013880081E80C001998FFF75BFD00285FD0044640
:10139800203020F0F1FF0746D4E90423E169096809
:1013A800521843EBE173DDE91A0182428B4160DB9D
:1013B80000212046FFF75AFE00230E9323680F935F
:1013C800D4E90423CDE91023637E002B56D0E369CA
:1013D8005B68DB680B9363680C9300230D9302AD85
:1013E80012AB13E90F0085E80F0006AE95E80F0071
:1013F80086E80F000B9816F027FC83685D683DB1FE
:10140800099908988DE80300079B069A0BA8A84736
:1014180017F1440F3BD04FF00003042262F302039C
:101428006FF3C503254A2649521AC2F3C90262F36B
:101438008F13199A2349244805F0FEF8204618F01E
:10144800EBF9002013B0BDE8F04002B070474FF050
:101458000001012363F302016FF3C501174B184A1A
:101468009B1AC3F3C90363F38F11184805F0D4F925
:10147800E7E703212046FFF7F9FD99E7E3695B6891
:101488001B680B93A3680C9300230D93A7E74FF0F9
:101498000003042262F302036FF3C503074A0849F5
:1014A800521AC2F3C90262F38F13199A0549084800
:1014B80005F0C2F8012384F85030C2E7602C020816
:1014C800902B0208E0350208CC3402087834020870
:1014D800A034020882B0F0B585B004460AA981E8B4
:1014E8000C00006816F0B0FB4668374B1B68BBB1B0
:1014F8004FF00002042363F302026FF3C502334B7B
:1015080033495B1AC3F3C90363F38F123149324875
:1015180005F012F8002005B0BDE8F04002B07047B1
:101528000B9F0296DDE90C23CDE90023A2686168D0
:101538003846FFF799FC054690B34FF000030422A4
:1015480062F302036FF3C503204A2149521AC2F31A
:10155800C90262F38F133A461E49204805F06CF819
:10156800194B1D602C693068044420F093FF0A224F
:101578000023FEF705FE201A0028CBDD20EAE070E4
:10158800C717B900820041EA9073121847EB0303AA
:1015980092185B4105F12001114817F065FCB9E785
:1015A8004FF00002012363F302026FF3C502074BF9
:1015B80007495B1AC3F3C90363F38F120A21094869
:1015C80004F0BAFFA6E700BF78340020602C0208B8
:1015D800902B0208C4350208E83402086435020872
:1015E800103300201C3502080E4B1B781BB9002055
:1015F8000C4B1870704770B50025092D0EDC0A4E8B
:10160800582404FB05F404F120000849304420F074
:10161800ABFE42F20F7333510135EEE70020014B68
:10162800187070BDE00C002098120020AF980108D7
:10163800F0B40746002500E00135092D20DC114EE5
:10164800582404FB05F430193459B4F1FF3FF3D1A1
:10165800447C002CF0D10B4E582404FB05F574197A
:1016680077516160A260E36000220023C4E9062389
:1016780000236374237484F850306365F0BC7047AA
:101688000020FBE708160020002300E00133092BA7
:1016980010DC582202FB03F207498A588242F5D12E
:1016A800582202FB0312527C002AEFD1582202FB77
:1016B8000310704700207047081600200E4B1B7857
:1016C8001BB900200C4B1870704770B50025092D08
:1016D8000EDC0A4E582404FB05F404F120000849E6
:1016E800304420F041FE4FF0FF3333510135EEE72F
:1016F8000020014B187070BDE10C00200816002076
:10170800E998010882B0F0B593B0044618A981E8B9
:101718000C00006816F098FA4768199E3046FFF7E3
:10172800B3FF00282DD0054618F0CEF8EB685B68AB
:1017380003936B680493AB680593002306932B68A7
:101748000793DDE91A23CDE90823284618F0B8F8ED
:101758000AAD06AB0FCB85E80F0095E80F0012AD78
:1017680005E90F00039816F06FFA83685D6845B1C4
:1017780012AB13E903008DE803000F9B0E9A03A830
:10178800A8473B46A26861683046FFF751FF00282A
:1017980040D0C268526803924268049282680592F7
:1017A8000022069203680793DDE91A23CDE908238E
:1017B8000AAC06AB0FCB84E80F0094E80F0012AC1C
:1017C80004E90F00039816F03FFA83681C6844B1D7
:1017D80012AB13E903008DE803000F9B0E9A03A8D0
:1017E800A0474FF00003042262F302036FF3C5031E
:1017F800124A1349521AC2F3C90262F38F133246CE
:101808001049114804F018FF002013B0BDE8F0405B
:1018180002B070474FF00002012363F302026FF336
:10182800C502064B06495B1AC3F3C90363F38F125B
:101838000A21064804F080FEE6E700BF602C020893
:10184800902B0208443702089436020850360208E2
:101858002DE9F04192B0FFF7EBF9002800F0DB80AA
:101868000746002449E0C3F3074239888A425ED11B
:101878003A7AB2EB136F5AD13EE0404618F024F89A
:10188800674A582303FB0423D3E90623D8F80C102E
:1018980049680391D8F804100491D8F80810059104
:1018A8000021069171590791CDE90823404618F0A7
:1018B80007F80AAD06AB0FCB85E80F0095E80F00D7
:1018C80012AD05E90F00039816F0BEF983685D684C
:1018D80095B112AB13E903008DE803000F9B0E9A34
:1018E80003A8A84708E03A884D49582303FB041386
:1018F80083F850207A685A650134092C00F38B80EC
:10190800474E582505FB04F506EB05087359B3F156
:10191800FF3FF1D0D8F80C30424958681AF085FFDB
:1019280028B9D8F8043099B27A6891429BD03C4AD9
:10193800582303FB0423D3E9060150EA010305D029
:10194800D7E90423904271EB030396DBBB7ABBB162
:10195800334A582303FB042393F85030002BCBD190
:10196800582303FB04235B6D002BC5D1582303FBCD
:1019780004231B7C002BB6D0404617F0A5FFB2E726
:10198800274A582303FB04231B7C002BB4D058237D
:1019980003FB042393F850203B889A42ACD1204A99
:1019A800582303FB04235A6D7B689A42A4D140460E
:1019B80017F08AFFD7E90423D8F80C104968039177
:1019C800D8F804100491D8F8081005910021069160
:1019D80071590791CDE90823404617F071FF0AAD08
:1019E80006AB0FCB85E80F0095E80F0012AD05E9AF
:1019F8000F00039816F028F983685D68002D3FF4FE
:101A08007BAF12AB13E903008DE803000F9B0E9A1E
:101A180003A8A84770E7002012B0BDE8F08100BF16
:101A2800081600205439020882B070B592B016A981
:101A380081E80C001798FFF727FEF8B1064690F8E2
:101A480050300BB1436D63BB01233374F3681B68DB
:101A5800DDE91845E41845F10005C6E9064520F01A
:101A680019FD0A220023FEF78BFB241A002C59DCEF
:101A7800002012B0BDE8704002B070474FF000017E
:101A8800012363F302016FF3C501304B304A9B1AFF
:101A9800C3F3C90363F38F112E4804F0BDFE002081
:101AA800E7E74FF00002042363F302026FF3C50275
:101AB800264B27495B1AC3F3C90363F38F122649E0
:101AC800264804F039FDF3685B6803937368049350
:101AD800B36805930023069333680793DDE9182359
:101AE800CDE90823304617F0EBFE0AAC06AB0FCB66
:101AF80084E80F0094E80F0012AC04E90F00039883
:101B080016F0A2F883685C684CB112AB13E90300C5
:101B18008DE803000F9B0E9A03A8A047A9E76FF072
:101B28002200A6E724EAE474E1178D00A20045EA42
:101B38009473121941EB030392185B4106F12001DB
:101B4800074817F091F9002093E700BF602C0208BE
:101B5800902B0208AC36020864370208D036020817
:101B68001033002082B010B582B0044604A981E881
:101B78000C004FF00002042363F302026FF3C50266
:101B88000B4B0C495B1AC3F3C90363F38F12ADF80F
:101B980000204368059A0849084804F001FC2079A8
:101BA80000F0AEFA02B0BDE8104002B0704700BFC6
:101BB800602C0208902B0208CC37020894370208E0
:101BC80082B010B582B0044604A981E80C004FF039
:101BD8000002042363F302026FF3C5020B4B0C49A6
:101BE8005B1AC3F3C90363F38F12ADF8002043688F
:101BF800059A0849084804F0D3FB207900F036FA22
:101C080002B0BDE8104002B0704700BF602C020867
:101C1800902B0208B03702089437020882B008B542
:101C280002A981E80C00416801291CD002291ED0B4
:101C380099B14FF00002012363F302026FF3C5026A
:101C48000D4B0E481B1AC3F3C90363F38F120C48DC
:101C580004F072FC6FF0220001E003F023F9BDE804
:101C6800084002B07047002003F0F0F8F7E70120C1
:101C780003F0ECF8F3E700BF602C0208902B020891
:101C8800F437020882B000B583B004A981E80C00DB
:101C98004FF00002042363F302026FF3C5020A4BFC
:101CA8000A495B1AC3F3C90363F38F124368ADF89B
:101CB8000020059A0649074804F072FB002003B08B
:101CC8005DF804EB02B07047602C0208902B020804
:101CD800503802089437020882B010B582B0044622
:101CE80004A981E80C004FF00002042363F3020208
:101CF8006FF3C5020B4B0C495B1AC3F3C90363F3BB
:101D08008F12ADF800204368059A0849084804F086
:101D180047FB207917F05BFE02B0BDE8104002B027
:101D2800704700BF602C0208902B02083438020864
:101D38009437020882B000B583B004A981E80C008A
:101D48004FF00002042363F302026FF3C5020A4B4B
:101D58000A495B1AC3F3C90363F38F124368ADF8EA
:101D68000020059A0649074804F01AFB002003B032
:101D78005DF804EB02B07047602C0208902B020853
:101D8800A03802089437020882B010B582B0044621
:101D980004A981E80C004FF00002042363F3020257
:101DA8006FF3C5020B4B0C495B1AC3F3C90363F30A
:101DB8008F12ADF800204368059A0849084804F0D6
:101DC800EFFA207917F010FE002002B0BDE81040AD
:101DD80002B07047602C0208902B02088438020871
:101DE800943702082DE9F04391B005468846174616
:101DF8001E464FF00003042262F302036FF3C5038B
:101E0800584C594AA41AC4F3C90464F38F13DFF871
:101E18006891ADF80030836842684946534804F039
:101E2800BFFAD8F808301B6902AA21214046984712
:101E3800804650BB029BB3F1FF3F34D0012B40F0EA
:101E48008E806C684FF00003042262F302036FF384
:101E5800C503444A4449521AC2F3C90262F38F13B4
:101E680022464946424804F0E7FBC4F3074314F40A
:101E78007F0F00D10723D8B2A2B2A2F1E00107294F
:101E880013D8072860D0414610E04FF00002022323
:101E980063F302026FF3C50264F38F1201463548FB
:101EA80004F04AFB4CE0AC68CCE7414611F0010F66
:101EB8004CD0210E0020ADF828300B928DF8300060
:101EC8008DF8311001238DF832300E970F9610AB34
:101ED80013E903008DE803000AAB0FCBFEF78CFE75
:101EE80017F080FC3220002116F08CFEC4F3074363
:101EF80014F47F0F00D10723D8B2A2B2A2F1E001F7
:101F0800072901D8072824D018F0010F24D0210E62
:101F18000024ADF8103005928DF818408DF819108E
:101F280000238DF81A3008970996314638468DE80F
:101F3800030004AB0FCBFEF75FFE17F053FC80469F
:101F4800404611B0BDE8F0830121AFE7200E002123
:101F5800B1E74FF00108D7E7240E0021D9E76FF069
:101F68002208EDE7602C0208902B0208F0380208DE
:101F7800443902081C3902086039020882B038B5B1
:101F8800044604A981E80C002F4815F05DFEE8B16D
:101F980005466168012933D0022936D059B34FF07C
:101FA8000002012363F302026FF3C502274B28489E
:101FB8001B1AC3F3C90363F38F12264804F0BCFA53
:101FC8006FF02200BDE8384002B070474FF00002C1
:101FD800012363F302026FF3C5021C4B1C495B1A11
:101FE800C3F3C90363F38F1261681B4804F0A4FAB2
:101FF8006FF00400E6E783685B68F3B19847E1E7B0
:1020080083681B68E3B19847DCE783689B685BB12A
:102018009847002808DDAB685B6813B128469847E5
:10202800D0E76FF02200CDE7AB681B6813B12846F4
:102038009847C7E76FF02200C4E76FF02200C1E7B6
:102048006FF02200BEE700BF88390208602C020842
:10205800902B0208BC3902089439020808B5024BD3
:10206800196817F0A9FC08BD7C340020022839D86B
:1020780010B586B004461D490A68012383401343FE
:102088000B609A4202D1002006B010BD4FF000024A
:10209800042363F302026FF3C502154B15495B1A5B
:1020A800C3F3C90363F38F12ADF80020012302467E
:1020B8001149124804F074F98DF8084001238DF88D
:1020C800093020F0E7F90A220023FEF759F8CDE994
:1020D800040106AB13E90F00FEF778FD17F082FB49
:1020E8000020D1E76FF01500704700BF7C34002056
:1020F800602C0208902B0208E03A0208FC3902081A
:1021080002283BD810B586B00446002839D01E49AD
:102118000A680123834022EA03030B609A4201D133
:1021280000202FE04FF00002042363F302026FF354
:10213800C502164B16495B1AC3F3C90363F38F1222
:10214800ADF80020002302461249134804F028F98C
:102158008DF8084000248DF8094020F09BF90A22E8
:102168000023FEF70DF8CDE9040106AB13E90F00D3
:10217800FEF72CFD17F036FB204603E06FF0150044
:102188007047002006B010BD7C340020602C020887
:10219800902B0208E03A0208FC3902082DE9F04FBA
:1021A80091B005460C460292DFF82C8101EB410301
:1021B800C0EB8016F60006EB830608EB06030393D4
:1021C8000C900D91DDE91A23CDE90E234FF0040A96
:1021D8004FF000076AF302076FF3C507394B3A4A15
:1021E8009B1AC3F3C90363F38F17384B08930990FD
:1021F8000A9158F8060003F0CFFF0B903B46524671
:1022080008A9334804F09CFA58F8060015F01CFD9C
:10221800F8B1029B002B36D004AC10AB13E90F00C9
:1022280084E80F0008AD94E80F0085E80F0058F81F
:10223800060015F009FD83681C680CB30B990A9811
:102248008DE80300099B089A0398A04711B0BDE8E0
:10225800F08F4FF000026AF302026FF3C502194BC8
:1022680019495B1AC3F3C90363F38F12ADF8002051
:102278002B4622461549174804F092F80120E5E755
:102288006FF02200E2E704AC10AB13E90F0084E81A
:102298000F0008AD94E80F0085E80F0058F8060015
:1022A80015F0D2FC83685C6844B10B990A988DE8F4
:1022B8000300099B089A0398A047C7E76FF022001C
:1022C800C4E700BF602C0208902B0208F03A02080D
:1022D800243A0208543A0208B00100202DE9F047D8
:1022E80082B0054616461F46884621B1254B1A6816
:1022F800254B43F82020022411E0042363F302094C
:102308006FF3C509214B224A9B1AC3F3C90363F330
:102318008F194A461F49204804F00EF9013C002C49
:102328002CDB194951F82510E0B217F045FB0028BD
:10233800F4D000960197424629462046FFF72EFF23
:10234800B0F1000AD9DCBAF1000F03DB504602B045
:10235800BDE8F0874FF00003042262F302036FF335
:10236800C5030A4A0A49521AC2F3C90262F38F1313
:1023780052460849094804F05FF9E7E76FF0220A76
:10238800E4E700BF7C34002080340020602C020881
:10239800902B0208103B0208803A0208B43A02085F
:1023A80082B008B502A981E80C004168032913D856
:1023B800DFE801F002080B0E00F0CEFEBDE8084091
:1023C80002B0704700F058FFF8E700F083FFF5E728
:1023D800007A00F023FFF1E74FF00002012363F3D6
:1023E80002026FF3C502064B06481B1AC3F3C90362
:1023F80063F38F12044804F09FF86FF02200DDE7C2
:10240800602C0208902B0208383B020800B583B004
:10241800094B1B788DF80030084A162101FB03236D
:10242800019302AB13E90300FEF70CFC17F0DAF98D
:1024380003B05DF804FB00BF645900203435002068
:1024480008B501220249034806F0AAF808BD00BFF2
:10245800645900205C3B020810B5054C20461FF06B
:102468008BFF044A00232146034816F0FDFC10BDEB
:1024780078190020C0270900103300202DE9F04703
:1024880094B005460F46904699464FF0000604233F
:1024980063F302066FF3C5069A4C9B4BE41AC4F328
:1024A800C90464F38F16DFF8B4A203F075FE024680
:1024B80033465146954804F0BFF813AA9449284674
:1024C80019F038FA002800F0C6801398002800F0A8
:1024D800C2800A2207A91AF0EFF8C2B2079B1B783C
:1024E800DBB9162F32D1042A46D8C5B2162289493B
:1024F80002FB05114846C047041E53DD162303FBA3
:1025080005F30833834A1344DC1DDB79032B00F2FF
:102518009C80DFE803F05A8B90954FF0000402236B
:1025280063F302046FF3C504764B774A9B1AC3F32F
:10253800C90363F38F14139803F02EFE0146224655
:10254800754803F0F9FF6FF0150496E04FF00003AB
:10255800012262F302036FF3C5036A4A6A49521AF9
:10256800C2F3C90262F38F13162239466B4804F08E
:1025780063F86FF0150480E04FF00003022262F365
:1025880002036FF3C5035F4A5F49521AC2F3C902D7
:1025980062F38F130522C1B2614804F04DF86FF061
:1025A80015046AE04FF00002012363F302026FF39F
:1025B800C502544B54495B1AC3F3C90363F38F1222
:1025C8002146584803F0B8FF57E0574908A81AF0C1
:1025D800F4F863792279E178A078667808AF0597EE
:1025E80004960390029101920093A3794F4A1E2109
:1025F8000BA817F019FD4FF00004042363F302043D
:102608006FF3C5043F4B404A9B1AC3F3C90363F3F6
:102618008F140BA803F0C0FD0246ADF800402B460E
:102628005146434803F0BCFE002426E0414908A86F
:102638001AF0C3F8CDE7404908A81AF0BEF8C8E771
:102648003E4908A81AF0B9F8C3E73D4A0A2108A884
:1026580017F0EAFCBDE713AA3A49284619F06AF9C7
:1026680008B1139B6BB113AA3749284619F062F9D0
:10267800044610B1139B0BB30024204614B0BDE8E8
:10268800F087012F37D1012230494846C047041E40
:1026980001DD0024F1E74FF00002012363F3020299
:1026A8006FF3C502174B18495B1AC3F3C90363F3E9
:1026B8008F122146264803F03FFFDEE7072F1DD182
:1026C800072224494846C047041E01DD0024D4E7F8
:1026D8004FF00002012363F302026FF3C502094BB6
:1026E80009495B1AC3F3C90363F38F1221461A48D9
:1026F80003F022FFC1E76FF01504BEE76FF0150481
:10270800BBE700BF602C0208902B0208703B020850
:102718008C3B020834350020983B0208B43B020881
:10272800E03B0208183C0208503C0208783C0208CA
:102738009C3C0208583C0208603C02086C3C0208B9
:10274800487B0208603B020858410208645900208F
:10275800C43C02082C350020FC3C0208EC4102086D
:1027680008B51BF007F8084B1B78162101FB03F18D
:102778000831064B1944072211441AF07CF8B0FAC4
:1027880080F0400908BD00BF64590020343500209E
:102798002DE9F04194B00F4616461D461AF0EAFF9F
:1027A80004460378032B4BD8DFE803F0023B40458F
:1027B800264907A81AF001F8A37962792179E07807
:1027C80094F802C094F801E00DF1300807AC0594C4
:1027D800CDF810E0CDF80CC00290019100921C4A8F
:1027E8001E21404617F020FC4FF00003042262F33C
:1027F80002036FF3C5031748174A801AC0F3C900CC
:1028080060F38F13154A0792CDF8208009970A962E
:102818000B9505222146124803F092FF14B0BDE83B
:10282800F081104907A819F0C8FFC5E70E4907A8A5
:1028380019F0C3FFC0E70D4907A819F0BEFFBBE7B1
:102848000B4A0A2107A817F0EFFBB5E7503C02082E
:10285800783C0208602C0208902B020834420208D7
:10286800383D0208583C0208603C02086C3C0208EB
:10287800487B020870B592B01AF07CFF04460378D2
:10288800032B4CD8DFE803F0023C4146274907A850
:1028980019F093FFA37962792179E078A5786478B3
:1028A80007AE059604940395029001910092204A80
:1028B8001E210AA817F0B8FB1E4B186820B11AF0A1
:1028C80033FF1C4B00221A6000231B4A13704FF081
:1028D8000004042262F3020463F3C504174B184A88
:1028E8009B1AC3F3C90363F38F140AA803F054FCBB
:1028F800024623461349144803F09EFE12B070BDE9
:10290800124907A819F059FFC4E7114907A819F097
:1029180054FFBFE70F4907A819F04FFFBAE70E4A5F
:102928000A2107A817F080FBB4E700BF503C020853
:10293800783C02082835002066590020602C0208DF
:10294800902B020848420208643D0208583C0208DD
:10295800603C02086C3C0208487B0208F0B593B062
:102968000E4615461AF006FF04460378032B46D890
:10297800DFE803F002363B40314907A819F01DFF94
:10298800A37962792179E078A77864780DF11C0C35
:10299800CDF814C004940397029001910092294A3B
:1029A8001E210AA817F040FB7DBB4FF0000404234A
:1029B80063F302046FF3C504234B244A9B1AC3F341
:1029C800C90363F38F140AA803F0E6FB0246ADF8C7
:1029D800004033461E491F4803F0E2FC13B0F0BD27
:1029E8001D4907A819F0E9FECAE71C4907A819F00C
:1029F800E4FEC5E71A4907A819F0DFFEC0E7194A3F
:102A08000A2107A817F010FBBAE74FF000040123CA
:102A180063F302046FF3C5040B4B0C4A9B1AC3F310
:102A2800C90363F38F140AA803F0B6FB0146ADF897
:102A380000402B4632460C4803F0B2FCCEE700BFFC
:102A4800503C0208783C0208602C0208902B0208CF
:102A580020420208803D0208583C0208603C0208F7
:102A68006C3C0208487B0208A43D0208F0B593B00C
:102A780005460E461AF07EFE04460378032B5AD804
:102A8800DFE803F0024A4F54454907A819F095FEBC
:102A9800A37962792179E078A77864780DF11C0C24
:102AA800CDF814C0049403970290019100923D4A16
:102AB8001E210AA817F0B8FA4FF00004042363F3A4
:102AC80002046FF3C504384B384A9B1AC3F3C90391
:102AD80063F38F14364F0AA803F05EFB0246ADF885
:102AE800004033463946334803F05AFC324BBFF3B3
:102AF8005B8F53E8002F42F0010143E800100028E3
:102B0800F7D1BFF35B8F12F0010F1AD02846FFF7F9
:102B180027FEE0B913B0F0BD284907A819F04DFE0B
:102B2800B6E7274907A819F048FEB1E7254907A8DD
:102B380019F043FEACE7244A0A2107A817F074FAF3
:102B4800A6E7A3F1080121481FF0B0F9DEE74FF02E
:102B58000002042363F302026FF3C502124B134908
:102B68005B1AC3F3C90363F38F123946184803F09D
:102B7800E3FC184BBFF35B8F53E8002F42F00101D1
:102B880043E800100028F7D1BFF35B8F12F0010F64
:102B9800C0D1A3F108010D481FF088F9BAE700BFBA
:102BA800503C0208783C0208602C0208902B02086E
:102BB80010420208C83D0208F0070020583C0208ED
:102BC800603C02086C3C0208487B02081033002075
:102BD800F43D0208E407002000B583B00B4B1B78D6
:102BE800162000FB03F00830094B1844002300931B
:102BF800CDF8033007226946104419F03CFEB0FABC
:102C080080F0400903B05DF804FB00BF6459002060
:102C18003435002030B58BB002A90DF0E9FD4FF036
:102C28000004042363F302046FF3C5041B4B1C4A1E
:102C38009B1AC3F3C90363F38F149DF80950FFF778
:102C4800CBFF70B1174BADF800402A46164917481C
:102C580003F0A6FB9DF80930012B04D000200BB02F
:102C680030BD134BEFE7FFF7B7FF08B10020F6E7D9
:102C78004FF00002022363F302026FF3C502074B11
:102C880007495B1AC3F3C90363F38F12094B197819
:102C9800094803F051FC0620E1E700BF602C020858
:102CA800902B0208143E0208544202081C3E0208F7
:102CB800183E020864590020343E02082DE9F0410C
:102CC80096B080460C460B78032B6ED8DFE803F0ED
:102CD800025E63683B4907A819F06FFD63792279A2
:102CE800E178A078657807AE05960495039002917F
:102CF80001920093A379344A1E210AA817F094F987
:102D0800324E162707FB08F505F108003044072264
:102D18002146104419F0C7FD42462D4912A808F073
:102D2800C3FE4FF00004042363F302046FF3C504E9
:102D3800284B294A9B1AC3F3C90363F38F1412A8BB
:102D480003F02AFA80460AA803F026FA0346ADF8EB
:102D5800004042462149224803F022FB3A467119B5
:102D680012A805F01DFC1F4BBFF35B8F53E8002F23
:102D780042F0010143E800100028F7D1BFF35B8F50
:102D880012F0010F17D016B0BDE8F081164907A858
:102D980019F013FDA2E7154907A819F00EFD9DE7E4
:102DA800134907A819F009FD98E7124A0A2107A84C
:102DB80017F03AF992E7A3F108010F481FF076F8E7
:102DC800E1E700BF503C0208783C02083435002097
:102DD800643E0208602C0208902B02087441020825
:102DE800743E0208E4070020583C0208603C0208D0
:102DF8006C3C0208487B020810330020044B1B7807
:102E0800162000FB03F00830024B184407307047C7
:102E18006459002034350020F0B597B0FFF7DCFE88
:102E2800002842D002244FF00002042363F3020278
:102E38006FF3C502AF4BB0495B1AC3F3C90363F321
:102E48008F12AE4EAE4DADF8002023462A7831469B
:102E5800AC4803F0A5FA2B7804EB0314013C202CB2
:102E680000F26F81DFE814F0A60031016D016D01F9
:102E78006D016D016D016D016D016D016D016D01DA
:102E88006D016D016D0128004200F3006D016D01B7
:102E98006D016D016D016D016D016D016D016D01BA
:102EA8006D016D016D012800420016F0C6FD08B1E4
:102EB8000024B8E70224B6E70CF05CFB904B002234
:102EC8001A700446002800F01281012363F30202FD
:102ED8006FF3C502874B88495B1AC3F3C90363F3D1
:102EE8008F120146884803F027FB2BE10CF042FBC8
:102EF800834B00221A700446F0B9FFF77FFF05469E
:102F0800014600200DF086FA074630B34FF0000264
:102F1800042363F302026FF3C502764B76495B1A0A
:102F2800C3F3C90363F38F123146784803F004FBF7
:102F380038461AF0F9FB05E1012363F302026FF347
:102F4800C5026C4B6C495B1AC3F3C90363F38F1258
:102F580001466D4803F0F0FAF4E000238DF80830DC
:102F68008DF809308DF80A3013220392A0220492BA
:102F7800F0220592069500930422654902A81AF0EA
:102F880004F9044618B95E4B01221A70AFE04FF0FD
:102F98000002012363F302026FF3C502554B564941
:102FA8005B1AC3F3C90363F38F120146594803F050
:102FB800C3FAC7E0FFF722FF0446014600200DF0E0
:102FC80029FA0546B0B14FF00002042363F3020268
:102FD8006FF3C502474B48495B1AC3F3C90363F350
:102FE8008F123146494803F0A7FA28461AF09CFB8D
:102FF8000024A7E000238DF81C308DF81D308DF8D3
:103008001E3013220892A0220992F0220A920B94F1
:10301800009304223E4907A81AF0B7F8044618B9E5
:10302800374B01221A7062E04FF00002012363F36C
:1030380002026FF3C5022F4B2F495B1AC3F3C90372
:1030480063F38F120146334803F076FA7AE00CF006
:1030580091FA2B4B00221A70044690B90CAC2E4DF5
:103068000FCD0FC42B682360002300930422284946
:103078000CA81AF08AF80446A0B9214B02221A704B
:1030880035E0012363F302026FF3C502194B1A49B5
:103098005B1AC3F3C90363F38F1201461A4803F09E
:1030A8004BFA4FE04FF00002012363F302026FF383
:1030B800C502104B10495B1AC3F3C90363F38F129F
:1030C8000146144803F038FA3CE011AC124D0FCD1C
:1030D8000FC42B6823600023009304220C4911A815
:1030E8001AF053F80446C8B9054B02221A70002496
:1030F80028E000BF602C0208902B020888410208D3
:10310800655900209C3E0208BC3E0208E03E0208C9
:10311800904202081C3F0208782C02084FF0000277
:10312800012363F302026FF3C502084B08495B1AD7
:10313800C3F3C90363F38F120146064803F0FCF991
:1031480000E00024204617B0F0BD00BF602C020844
:10315800902B02081C3F020810B584B04FF0000203
:10316800042363F302026FF3C502254B25495B1A5A
:10317800C3F3C90363F38F12234C2146234803F09A
:10318800DBF9234B1B78162000FB03F00830214B9A
:10319800184400230093CDF80330072269461044F1
:1031A80019F069FB20B9FFF737FE002004B010BD05
:1031B8004FF00002042363F302026FF3C502104BC1
:1031C80010495B1AC3F3C90363F38F1221461248EF
:1031D80003F0B2F90E4C2378162101FB03F10831F4
:1031E8000C4B1944073100200AF0A8FD0023029374
:1031F800CDF80B3002A92078FFF760FDD3E700BFB8
:10320800602C0208902B02089C410208443F0208E7
:1032180064590020343500204C3F020810B504469C
:103228004FF00003042262F302036FF3C5030D4A53
:103238000D49521AC2F3C90262F38F1302460B49B1
:103248000B4803F0F9F90B4B1B78A34207D0094B45
:103258001C70FFF701F9FFF7DFFDFFF7D7F8002033
:1032680010BD00BF602C0208902B0208B041020874
:103278005C3F02086459002008B54FF0000204239F
:1032880063F302026FF3C5020C4B0D495B1AC3F3DB
:10329800C90363F38F120B490B4803F04DF90B4B2D
:1032A8001B7801330A4880FB0320401000EB8000A4
:1032B800181AC0B2FFF7B2FF08BD00BF602C0208A1
:1032C800902B0208C4410208443F020864590020B8
:1032D8006766666608B54FF00002042363F30202CE
:1032E8006FF3C5020C4B0D495B1AC3F3C90363F3B3
:1032F8008F120B490B4803F01FF90B4B1B78043353
:103308000A4880FB0320401000EB8000181AC0B266
:10331800FFF784FF08BD00BF602C0208902B02084D
:10332800D8410208443F020864590020676666666F
:10333800F0B59BB005461AF01DFA04460378032B36
:1033480046D8DFE803F002363B40374907A819F0B2
:1033580034FAA37962792179E078A67867780DF153
:103368001C0CCDF814C004970396029001910092AA
:103378002E4A1E210AA816F057FE12A928460DF05B
:1033880037FA9DF84920012A28D04FF0000304217C
:1033980061F302036FF3C50325492648091AC1F3EF
:1033A800C90161F38F132449244803F045F91BB080
:1033B800F0BD234907A819F000FACAE7214907A870
:1033C80019F0FBF9C5E7204907A819F0F6F9C0E795
:1033D8001E4A0A2107A816F027FEBAE7FFF7FCFBEA
:1033E80038B121461A4B1878FFF768FCFFF714FD2F
:1033F800DDE74FF00005012363F302056FF3C50510
:103408000B4B0C4A9B1AC3F3C90363F38F150AA825
:1034180002F0C2FE01462A460E4803F08DF8214606
:1034280000200AF08BFCC2E7503C0208783C0208F6
:10343800602C0208902B0208684202086C3F0208C0
:10344800583C0208603C02086C3C0208487B0208B1
:1034580064590020883F0208F0B595B005460E462D
:103468001AF088F904460378032B79D8DFE803F0CB
:1034780002696E73714907A819F09FF9A3796279F7
:103488002179E078A77864780DF11C0CCDF814C088
:1034980004940397029001910092694A1E210AA898
:1034A80016F0C2FD4FF00004042363F302046FF327
:1034B800C504644B644A9B1AC3F3C90363F38F14AE
:1034C800624F15F0B7FB024623463946604803F0C1
:1034D800B3F8604B00221A70002E47D14FF0000459
:1034E800042363F302046FF3C504564B564A9B1A30
:1034F800C3F3C90363F38F140AA802F04DFE024612
:1035080023463946544803F097F812AB534A92E8D9
:10351800030083E80300194628461AF077F910F0EB
:10352800FF0F3DD1022128461AF014F800284AD18D
:10353800FFF772FC2846FFF713F9002855D115B09C
:10354800F0BD474907A819F038F997E7454907A892
:1035580019F033F992E7444907A819F02EF98DE7D5
:10356800424A0A2107A816F05FFD87E74FF00004DA
:10357800022363F302046FF3C504324B324A9B1AE9
:10358800C3F3C90363F38F140AA802F005FE0146CA
:1035980023463246364803F04FF8FFF73DFCCEE7A6
:1035A8004FF00002022363F302026FF3C502254BBA
:1035B80025495B1AC3F3C90363F38F12C1B22D48BF
:1035C80002F0BAFFAEE74FF00001012363F30201F6
:1035D8006FF3C5011B4B1C4A9B1AC3F3C90363F362
:1035E8008F11254803F018F9A2E74FF000020423D1
:1035F80063F302026FF3C502124B13495B1AC3F35C
:10360800C90363F38F1239461C4802F095FF1C4B1F
:10361800BFF35B8F53E8002F42F0010143E800102D
:103628000028F7D1BFF35B8F12F0010F87D1A3F108
:10363800080114481EF03AFC81E700BF503C02081C
:10364800783C0208602C0208902B02080442020809
:10365800C03F020865590020FC3F02088C2C020874
:10366800583C0208603C02086C3C0208487B02088F
:10367800DC3F0208104002083840020850400208A7
:10368800E40700201033002010B504464FF0000373
:10369800042262F302036FF3C503114A1149521A57
:1036A800C2F3C90262F38F1302460F490F4802F0B2
:1036B800C3FF14B9FFF7B0FB10BD4FF000020123A0
:1036C80063F302026FF3C502054B06495B1AC3F3A5
:1036D800C90363F38F122146054802F02DFFEBE77B
:1036E800602C0208902B02088042020870400208F1
:1036F8008040020870B584B000200BF06DFC58BB08
:1037080005F022F93E4804F0E7FF0546002837D1C6
:103718003C493D481EF028FE3C4804F07DFF3C48EB
:1037280004F07AFF4FF00001022363F302016FF304
:10373800C501384B384A9B1AC3F3C90363F38F1189
:10374800364803F069F82C46092C2CDC0021E0B23D
:103758000AF0F4FA0134F7E705464FF000020123B6
:1037680063F302026FF3C5022A4B2B495B1AC3F3BA
:10377800C90363F38F120146294802F0DDFE3CE0DD
:103788004FF00002012363F302026FF3C502214BDD
:1037980021495B1AC3F3C90363F38F120146214819
:1037A80002F0CAFE29E02C4600E00134042C1BDCA0
:1037B80022461D49684608F077F9684618F0B4F8BB
:1037C80001460028F1D0012363F302066FF3C50612
:1037D800104B114A9B1AC3F3C90363F38F16324681
:1037E800124802F0A9FEE0E711480CF08DFC1148E0
:1037F8000DF022FB0020FFF747FF284604B070BDFC
:10380800C4070020492400087819002048780208D5
:10381800F0400208602C0208902B0208F4400208CD
:10382800A0400208B8400208643E02083441020879
:10383800A4070020F407002010B50446072201461B
:10384800044819F030F807222146034804F0A8FE7E
:1038580010BD00BF2C3500205441020830B583B09C
:1038680004468368DB682B21984758BBA3681B690B
:103878006A462B21204698470546002837D14FF045
:103888000003042262F302036FF3C5032B4A2C4999
:10389800521AC2F3C90262F38F13009A29492A48BF
:1038A80002F0CAFE9DF8000003F008FB054690BB35
:1038B8009DF80000FDF7DCF915F094FF0546284651
:1038C80003B030BD05464FF00003042262F3020343
:1038D8006FF3C503194A1A49521AC2F3C90262F3AF
:1038E8008F1302461749194802F0A6FEE7E74FF082
:1038F8000003042262F302036FF3C5030F4A104961
:10390800521AC2F3C90262F38F1302460D491048D6
:1039180002F092FED3E74FF00002022363F30202A3
:103928006FF3C502054B06495B1AC3F3C90363F37A
:103938008F120146074802F0FFFDC0E7602C02081D
:10394800902B0208C443020808430208B042020848
:10395800D84202083443020808B50D4B1868FFF72F
:103968007DFF00B908BD02464FF00003042161F352
:1039780002036FF3C50307490748091AC1F3C901D0
:1039880061F38F130549064802F056FEEAE700BFC7
:10399800A4350020602C0208902B0208D8430208A6
:1039A8006443020808B50B4BBFF35B8F53E8002F45
:1039B80042F0010143E800100028F7D1BFF35B8F04
:1039C80012F0010F00D008BDA3F1080102481EF053
:1039D8006DFAF8E7240800201033002010B582B0F3
:1039E8001E4814F031F91E4B186068B1FFF736FF16
:1039F8000446F0B91B4A0023CDE900231A4815F004
:103A08000FFC204602B010BD4FF00002042363F300
:103A180002026FF3C502154B15495B1AC3F3C903BC
:103A280063F38F121349144802F086FD6FF01204F5
:103A3800E7E74FF00003042262F302036FF3C503C4
:103A48000A4A0B49521AC2F3C90262F38F1302469B
:103A580008490A4802F0F0FDD3E700BF8C4302088A
:103A6800A4350020C0270900E80E0020602C0208B9
:103A7800902B0208EC4302089443020864430208AE
:103A880010B584B0002200236946104814F0A8FB42
:103A9800C8B9042363F302046FF3C5040C4B0D4A41
:103AA8009B1AC3F3C90363F38F142346009A0A4988
:103AB8000A4802F0C1FD04AB13E90F00FDF766F8F0
:103AC80015F090FEDEE704B010BD00BFB00F002077
:103AD800602C0208902B0208844702080044020860
:103AE80070B58CB004464FF00005042363F302055B
:103AF8006FF3C5053A4B3B4A9B1AC3F3C90363F3FB
:103B08008F15394E19F05EFD02462B46314637486F
:103B180002F092FD0221204619F01CFD28BB344B0F
:103B28001868A04234D004A920460CF061FE042293
:103B38004FF0000362F302036FF3C50328492948D5
:103B4800091AC1F3C90161F38F130096BDF8241057
:103B58000191BDF8261002910B99497803916946A5
:103B6800244802F0EDFD0CB070BD01464FF0000294
:103B7800012363F302026FF3C502194B19481B1A9C
:103B8800C3F3C90363F38F121B4802F0D5FCEAE7BD
:103B98001A4B9B89002BC6D119491A4B0B601A4B3B
:103BA8004B6001230B814FF6FF73CB8100230B740D
:103BB80010F0BCFA01460028B5D04FF000020123EE
:103BC80063F302026FF3C502054B06481B1AC3F3E1
:103BD800C90363F38F120D4802F0AEFCC3E700BFC0
:103BE800602C0208902B0208F847020830440208AB
:103BF800A83500209444020858440208D035002013
:103C0800AC35002054080020E13D00087C4402083F
:103C180030B58BB01AB315464FF00001042262F399
:103C280002016FF3C5013B4A3B48121AC2F3C902AD
:103C380062F38F11ADF800102A463849384802F06F
:103C4800AFFB00230F2B1EDCE85C3649CA5C0AACCC
:103C58001C44424004F8102CC8540133F2E70C46C7
:103C6800042363F302026FF3C5022A4B2A495B1A45
:103C7800C3F3C90363F38F1228492B4802F05CFC95
:103C88000020208144E000253DE004EBC503254ADF
:103C9800515D0122A240114214BF01220022029369
:103CA8008DF80C201EF0F6FB0A220023FCF768FAB8
:103CB800CDE904010022002302A91C4814F038FAB7
:103CC8001B4BBFF35B8F53E8002F42F0010143E821
:103CD80000100028F7D1BFF35B8F12F0010F0BD053
:103CE8000134072C0EDC0AAB2B4413F8103CE340DC
:103CF80013F0010FF4D0C8E7A3F108010D481EF036
:103D0800D5F8EDE701350F2D01DC0024E9E70120A6
:103D18000BB030BD602C0208902B0208A4470208A3
:103D2800E8440208C0350020D4440208B00F00203F
:103D3800500800201033002008B5204910F07CFB03
:103D480010F1450F13D0014628B34FF000020123AC
:103D580063F302026FF3C502194B1A481B1AC3F327
:103D6800C90363F38F12184802F0E6FB11E04FF025
:103D78000002042363F302026FF3C502104B1149DA
:103D88005B1AC3F3C90363F38F121049104802F09A
:103D9800D3FB002008BD4FF00002042363F30202A6
:103DA8006FF3C502064B07495B1AC3F3C90363F3F4
:103DB8008F120649074802F0BFFBEAE7D03500201A
:103DC800602C0208902B020840450208C0470208F0
:103DD800104502082C450208F0B591B000293DD0E5
:103DE80006460F464FF00003042262F302036FF306
:103DF800C503554A5549521AC2F3C90262F38F13D3
:103E08003A8A5349534802F017FC6C46524D0FCD7D
:103E18000FC42B6823706946504B186818F009FEC8
:103E2800002846D105AC04350FCD0FC42B6823708C
:103E38004B4C112205A9204618F035FD47490C6066
:103E4800B7F9103001330B8103230B74304610F09F
:103E58006DF90146D8B9002011B0F0BD14464FF0F5
:103E68000002042363F302026FF3C502364B37499D
:103E78005B1AC3F3C90363F38F123549394802F05B
:103E88005BFB14220021204618F032FDE3E74FF0D7
:103E98000002012363F302026FF3C5022A4B2B4889
:103EA8001B1AC3F3C90363F38F122F4802F044FBB4
:103EB800D1E70AAC2D4D0FCD0FC42B6823700AA98A
:103EC800264B186818F0B5FD90BB00238DF83C30E0
:103ED80042F60213ADF83E30214D11220FA92846B3
:103EE80018F0E1FC1D4C2560B7F91030023323812E
:103EF8000423237438460FF003FE1D4B1881214616
:103F0800304610F013F901460028A4D04FF0000203
:103F1800012363F302026FF3C5020B4B0B481B1A14
:103F2800C3F3C90363F38F120F4802F005FB92E74E
:103F38000F4B104A1A6001229A813A8A5A813046F8
:103F4800FFF7FAFE87E700BF602C0208902B0208F3
:103F5800D847020874450208942C0208AC350020A2
:103F6800540800205C45020890450208A82C020865
:103F7800D0350020193C000830B587B001AC194D88
:103F88000FCD0FC42B682360174901A80BF060FC04
:103F98000446A0B94FF00002042363F302026FF352
:103FA800C502124B12495B1AC3F3C90363F38F129C
:103FB8001049114802F0C0FA204607B030BD4FF052
:103FC8000002012363F302026FF3C502074B08499D
:103FD8005B1AC3F3C90363F38F120146074802F063
:103FE800ABFAE9E7BC2C0208CD440008602C0208B3
:103FF800902B020850480208D0450208AC45020838
:1040080008B503480CF080F8FFF7B6FF08BD00BFFD
:1040180028080020F0B593B006460D4619F0AAFB13
:1040280004460378032B47D8DFE803F002373C4106
:10403800344907A818F0C1FBA37962792179E0789F
:10404800A77864780DF11C0CCDF814C0049403977C
:104058000290019100922C4A1E210AA815F0E4FF53
:1040680085BB4FF00004042363F302046FF3C50417
:10407800264B274A9B1AC3F3C90363F38F140AA874
:1040880002F08AF8024623462249234802F0D4FA6D
:104098003046FFF725FD13B0F0BD204907A818F0FA
:1040A8008CFBC9E71E4907A818F087FBC4E71D4920
:1040B80007A818F082FBBFE71B4A0A2107A815F0DA
:1040C800B3FFB9E74FF00004012363F302046FF371
:1040D800C5040E4B0E4A9B1AC3F3C90363F38F142E
:1040E8000AA802F059F8014623462A460F4802F06A
:1040F800A3FA0F4C206819F017FB00232360FFF781
:104108003BFFC8E7503C0208783C0208602C0208D4
:10411800902B02085C480208F4450208583C020843
:10412800603C02086C3C0208487B0208DC3F02083D
:10413800A83500202DE9F04FAFB004460D464FF0EA
:104148000002042363F302026FF3C502934B944900
:104158005B1AC3F3C90363F38F12924FADF80020C3
:10416800437802783946904802F01AF92378063BDA
:10417800012B03D901202FB0BDE8F08F637813F02D
:104188000F0F01D1002623E001244FF0000164F352
:1041980002016FF3C501814B814A9B1AC3F3C9031E
:1041A80063F38F11814802F037FB2046E3E70123D0
:1041B80063F302096FF3C509784B794A9B1AC3F375
:1041C800C90363F38F194946794802F025FB103675
:1041D80063789E4280F2E0806168102231440DEBE2
:1041E800020018F044FC0028E1D00DF1740CDFF84F
:1041F800D8E1BEE80F00ACE80F00DEF800308CF81C
:1042080000301DA904A818F014FC002838D1042394
:1042180063F302086FF3C508604B614A9B1AC3F346
:10422800C90363F38F1842463946624802F084F99D
:104238002846FFF701FB0BF09DFB0146002852D1F1
:10424800294600200CF0E6F85B4B186000285BD08C
:104258004FF00002042363F302026FF3C5024F4BD1
:104268004F495B1AC3F3C90363F38F1239465348A6
:1042780002F062F9504B1868FFF732FC00207AE729
:10428800252209A904A807F075FE0DF1880CDFF8AE
:1042980038E1BEE80F00ACE80F00DEF800308CF81B
:1042A8000030252213A922A807F064FE042363F333
:1042B800020A6FF3C50A394B394A9B1AC3F3C9037B
:1042C80063F38F1A09A801F067FF039013AB184630
:1042D80001F062FF0346ADF800A0039A394638485A
:1042E80002F05EF873E7012363F3020B6FF3C50B6B
:1042F8002A4B2B4A9B1AC3F3C90363F38F1B5A46F5
:10430800304802F019F962E72F4B27AE196CD86BC9
:1043180086E8030029AC44330FCB84E80F00264B12
:104328003246214628460CF097FA0146F0B9264B4A
:104338005B6D2D932DA9204B186819F01DFA0146C5
:1043480000289BD04FF00002012363F302026FF3B1
:10435800C502124B12481B1AC3F3C90363F38F1229
:104368001A4802F0E9F8FFF707FE87E74FF0000365
:10437800012262F302036FF3C503084A0848121AC0
:10438800C2F3C90262F38F1342F20D02104802F021
:1043980053F9FFF7F1FDCAE70120ECE6602C0208AB
:1043A800902B02081C480208084602082446020806
:1043B8003446020874460208A8350020B0460208B0
:1043C8004846020890460208942C0208044702084E
:1043D800D0460208F0B593B005460E4619F0CAF962
:1043E80004460378032B49D8DFE803F002393E433B
:1043F800294907A818F0E1F9A37962792179E078C9
:10440800A77864780DF11C0CCDF814C004940397B8
:10441800029001910092214A1E210AA815F004FE7B
:104428004FF00004042363F302046FF3C5041C4B2C
:104438001C4A9B1AC3F3C90363F38F140AA801F03B
:10444800ABFE0246ADF8004033461749174801F065
:10445800A7FF174B1868854216D013B0F0BD154951
:1044680007A818F0AAF9C7E7134907A818F0A5F98B
:10447800C2E7124907A818F0A0F9BDE7104A0A21B7
:1044880007A815F0D1FDB7E719F04EF9084B00223F
:104498001A60FFF771FDE0E7503C0208783C02081B
:1044A800602C0208902B020874480208244702086E
:1044B800A8350020583C0208603C02086C3C020801
:1044C800487B02082DE9F04395B004468846154616
:1044D8001F460378032B4ED8DFE803F0023E43481B
:1044E8002B4907A818F069F963792279E178A0784F
:1044F80066780DF11C09CDF814900496039002918A
:1045080001920093A379234A1E210CA815F08CFD73
:104518004FF00006042363F302066FF3C5061E4836
:104528001E4BC01AC0F3C90060F38F161C4B0793CB
:104538000CA801F031FE08900995BB880A93CDF8C4
:104548002C80334605224946164802F0F9F8012D19
:1045580017D915B0BDE8F083134907A818F02DF94D
:10456800C2E7124907A818F028F9BDE7104907A8BB
:1045780018F023F9B8E70F4A0A2107A815F054FDE7
:10458800B2E722460C49384609F0DAFFE1E700BFF6
:10459800503C0208783C0208602C0208902B020864
:1045A8003448020848470208583C0208603C0208A0
:1045B8006C3C0208487B02083D41000808B50248E7
:1045C80014F03EFB08BD00BF5010002008B51E487F
:1045D80013F03AFB1D4B186068B11D4B4C221D4966
:1045E80012F054FD194B18681BF0B5FF1A4803F078
:1045F8003DFCA0B908BD4FF00001012363F302019F
:104608006FF3C501154B164A9B1AC3F3C90363F32D
:104618008F11144802F000F96FF01500EAE74FF027
:104628000001012363F302016FF3C5010B4B0C4A30
:104638009B1AC3F3C90363F38F110B4802F0ECF81C
:104648006FF01500D6E700BF90480208E835002053
:10465800CC480208F048020801470008602C02080C
:10466800902B020898480208B448020838B5144B41
:104678001B780B2B0BD8DFE803F01F1F0A0A1F0655
:104688000A0A0A0A0A1F17F029F8044616E004461F
:104698000D464FF4967200230A4814F0F9FA0023E5
:1046A8002A4621460848006812F00AFD044628B147
:1046B800044814F0C5FA01E06FF01204204638BD32
:1046C800E20C002050100020E8350020094B1B7830
:1046D800042B0AD005D8012B01D8012070470220ED
:1046E80070470B2B03D10020704700207047022031
:1046F800704700BFE20C002008B5024B187015F097
:10470800BBF908BDE20C002010B584B04C2402941B
:10471800044C0194BDF8184000941AF0D9FB04B079
:1047280010BD00BF244C020808B505234FF40072E1
:104738000249034814F072FB002008BD10620020F3
:10474800A819002010B582B0FEF758FB04464FF0B8
:104758000003042262F302036FF3C503204A2149D0
:10476800521AC2F3C90262F38F1302461E491F4848
:1047780001F062FF00230093CDF803300722694659
:10478800204618F078F830B1214600200BF042FEA0
:10479800A0B102B010BD4FF00001022363F3020183
:1047A8006FF3C5010E4B0F4A9B1AC3F3C90363F39A
:1047B8008F110F4802F030F80020EAE74FF00001AF
:1047C800022363F302016FF3C501054B054A9B1AE7
:1047D800C3F3C90363F38F11064802F01DF8EBE732
:1047E800602C0208902B0208C04A02083C490208C3
:1047F800544902088849020830B589B012E00123FB
:1048080063F302056FF3C505164B174A9B1AC3F3EA
:10481800C90363F38F152A46144801F08DFE20461C
:1048280018F082FF0022002306A9114813F0D8FCD3
:10483800B0B9FFF787FF044690B1002300930393B4
:10484800049305930B4B019306AB02930823ADF831
:104858000C3069460FF096FA01460028DFD0CEE703
:1048680009B030BD602C0208902B0208BC49020830
:10487800001000205C4B020830B58BB013E0042315
:1048880063F302056FF3C505174B18495B1AC3F3A9
:10489800C90363F38F152B461549164801F0CCFE62
:1048A800204618F041FF0022002307A9124813F000
:1048B80097FCB0B9FFF746FF044690B10023019377
:1048C8000493059306930D4B029307AB03930C23B4
:1048D800ADF8103001A90FF055FA02460028DFD0D4
:1048E800CDE70BB030BD00BF602C0208902B02084A
:1048F800D84A0208B8490208D80F0020C04B02085D
:1049080030B583B004464FF47A7200230146284834
:1049180013F00EFC054688B310F10B0F12D04FF0C0
:104928000002022363F302026FF3C502214B2249FE
:104938005B1AC3F3C90363F38F1201461F4801F0E2
:10494800FBFD2BE04FF00001022363F302016FF33C
:10495800C501184B184A9B1AC3F3C90363F38F1197
:10496800174801F059FF002200236946104813F048
:1049780037FC2046FFF7C4FF05460FE0114BBFF395
:104988005B8F53E8002F42F0010143E80010002834
:10499800F7D1BFF35B8F12F0010F02D0284603B0A6
:1049A80030BDA3F1080108481DF080FAF6E700BF02
:1049B80000100020602C0208902B0208184A0208F8
:1049C800D049020894090020A819002030B585B004
:1049D80004464FF47A7200230146284813F0A8FBD6
:1049E800054688B310F10B0F12D04FF000020223D6
:1049F80063F302026FF3C502214B22495B1AC3F32A
:104A0800C90363F38F1201461F4801F095FD2BE09F
:104A18004FF00001022363F302016FF3C501184B45
:104A2800184A9B1AC3F3C90363F38F11174801F09F
:104A3800F3FE0022002301A9104813F0D1FB204601
:104A4800FFF7C4FF05460FE0114BBFF35B8F53E838
:104A5800002F42F0010143E800100028F7D1BFF30E
:104A68005B8F12F0010F02D0284605B030BDA3F1CC
:104A7800080108481DF01AFAF6E700BFD80F002011
:104A8800602C0208902B0208904A0208484A020843
:104A980088090020A819002010B5054C20461DF0F3
:104AA8006BFC044A00232146034814F0DDF910BDCD
:104AB800381A0020C02709001033002010B515F05F
:104AC8003FF860B315F040F8A8B14FF00003042296
:104AD80062F302036FF3C503264A2749521AC2F349
:104AE800C90262F38F13254C22782549254801F025
:104AF800A3FD207829E04FF00002042363F30202AB
:104B08006FF3C5021B4B1C495B1AC3F3C90363F35C
:104B18008F121B491C4801F00FFD012015E015F00C
:104B280013F898B94FF00002042363F302026FF3FD
:104B3800C502104B10495B1AC3F3C90363F38F1204
:104B48000F49124801F0F8FC012010BD4FF0000297
:104B5800042363F302026FF3C502064B06495B1A8E
:104B6800C3F3C90363F38F120549094801F0E4FC54
:104B78000020EAE7602C0208902B02086859002000
:104B8800CC4E0208704C0208984C0208C84C020827
:104B9800B04C020810B5FBF73BFF264B1978B1B1B2
:104BA80001292DD04FF00002012363F302026FF3B5
:104BB800C502214B21481B1AC3F3C90363F38F12A3
:104BC8001F4801F0B9FC6FF02204204610BD0921EE
:104BD800FFF74CFD04460028F7D04FF000020123F0
:104BE80063F302026FF3C502134B14495B1AC3F354
:104BF800C90363F38F120146124801F09DFCE4E7F4
:104C08000130FFF77DFE04460028DED04FF0000299
:104C1800012363F302026FF3C502074B07495B1ACE
:104C2800C3F3C90363F38F120146074801F084FCFC
:104C3800CBE700BFE30C0020602C0208902B020891
:104C48001C4D0208E44C0208004D020810B5FBF7A1
:104C5800E3FE264B1978B1B101292DD04FF000029F
:104C6800012363F302026FF3C502214B21481B1A8B
:104C7800C3F3C90363F38F121F4801F05DFC6FF0A3
:104C88002204204610BD0D21FFF7F0FC0446002841
:104C9800F7D04FF00002012363F302026FF3C5025D
:104CA800134B14495B1AC3F3C90363F38F1201460C
:104CB800124801F041FCE4E70130FFF787FE0446A3
:104CC8000028DED04FF00002012363F302026FF3E5
:104CD800C502074B07495B1AC3F3C90363F38F1275
:104CE8000146074801F028FCCBE700BFE30C002091
:104CF800602C0208902B02081C4D0208E44C0208A4
:104D0800004D020810B503F01FFE104803F0E4FC44
:104D1800044640B90E490F481DF026FB0E4803F023
:104D28007BFC204610BD4FF00002012363F3020212
:104D38006FF3C502094B0A495B1AC3F3C90363F34E
:104D48008F120146074801F0F7FBEAE79C090020AB
:104D5800714D0008381A0020704D0208602C0208B6
:104D6800902B0208344D020808B501220249034875
:104D780003F016FC08BD00BF685900207C4D0208EE
:104D880010B504464FF00003042262F302036FF3E8
:104D9800C503154A1549521AC2F3C90262F38F13A3
:104DA80002461349134801F047FC072C16D00C2C77
:104DB80017D04FF00002012363F302026FF3C5021C
:104DC800094B0A495B1AC3F3C90363F38F122146DF
:104DD800094801F0B1FB6FF0220001E0FFF7DAFEAD
:104DE80010BDFFF733FFFBE7602C0208902B020889
:104DF800984E0208904D0208A84D020810B5FFF71A
:104E08005DFE0E4B1B78834200D110BD044614F0A2
:104E1800A3FE0A4B1C704FF00002032363F3020247
:104E28006FF3C502064B07495B1AC3F3C90363F363
:104E38008F122146044801F07FFBE6E7E30C0020CF
:104E4800602C0208902B0208C44D020810B50446D5
:104E58004FF00003042262F302036FF3C5030C4A08
:104E68000C49521AC2F3C90262F38F1302460A4967
:104E78000A4801F0E1FB0A4B1B78A34205D0084B16
:104E88001C70FFF709FEFFF7B9FF002010BD00BF37
:104E9800602C0208902B0208804E0208DC4D0208A4
:104EA8006859002008B5044B1878B0FA80F040091A
:104EB800FFF7CCFF08BD00BF685900202DE9F84373
:104EC80081460E46174698464FF00005042363F3C3
:104ED80002056FF3C505264C264BE41AC4F3C90432
:104EE80064F38F1501F058F902462B4622492348EE
:104EF80001F0A2FB00222249484616F01BFD044699
:104F080050B1012E0BD101221E494046B847041E5C
:104F18001ADDFFF773FF00242046BDE8F88301225D
:104F28004FF0000362F302036FF3C5031049114801
:104F3800091AC1F3C90161F38F133146124801F010
:104F48007BFB6FF01504E7E74FF00002012363F3E2
:104F580002026FF3C502064B06495B1AC3F3C90385
:104F680063F38F122146094801F0E6FAD4E700BF3F
:104F7800602C0208902B0208B44E0208F84D020873
:104F8800EC32020868590020184E0208444E020804
:104F980030B587B004464FF00003042262F30203E1
:104FA8006FF3C5032B4A2C49521AC2F3C90262F3A4
:104FB8008F132A4A01920288029242680392027A67
:104FC8000492427A0592052201A9254801F0B8FB0E
:104FD8002388072B0ED00C2B24D0607A14F0DCFB2E
:104FE800207AFBF747FC2088FFF7CAFE05462846CB
:104FF80007B030BD6068FBF789FC05460028ECD097
:105008004FF00001012363F302016FF3C501114B57
:10501800114A9B1AC3F3C90363F38F11114801F0B6
:10502800FBFBE4E76068FBF7B9FC05460028D4D031
:105038004FF00001012363F302016FF3C501054B33
:10504800054A9B1AC3F3C90363F38F11054801F09E
:10505800E3FBCCE7602C0208902B02086C4F020897
:10506800E84E0208384F020830B587B004464FF0C2
:105078000003042262F302036FF3C5032B4A2C4991
:10508800521AC2F3C90262F38F132A4A01920288A4
:10509800029242680392027A0492427A05920522A9
:1050A80001A9254801F04CFB2388072B0DD00C2BB8
:1050B80023D0607A14F083FBFBF702FC2088FFF70B
:1050C8005FFE0546284607B030BD6068FBF73EFC2A
:1050D80005460028EDD04FF00001012363F30201DB
:1050E8006FF3C501114B124A9B1AC3F3C90363F34B
:1050F8008F11124801F090FBE4E76068FBF766FC4B
:1051080005460028D5D04FF00001012363F30201C2
:105118006FF3C501054B064A9B1AC3F3C90363F332
:105128008F11064801F078FBCCE700BF602C02081D
:10513800902B02088C4F0208E84E0208504F0208D4
:1051480008B54FF00001032363F302016FF3C501B3
:10515800064B074A9B1AC3F3C90363F38F1105482B
:1051680001F05AFB0448FBF77BFA08BD602C0208E3
:10517800902B0208B04F0208C44F020830B4002434
:1051880094420FD20B5D43401809074D285680EA18
:105198000310C3B2C0F30310285680EA0310C0B24C
:1051A8000134EDE730BC7047D04F020830B40546F3
:1051B800002064230FE0303405F8014B0139C9B2EF
:1051C8000130C0B2B2FBF3F403FB1422D2B20A4C92
:1051D800A4FB0343DB0849B143B1B2FBF3F49A42A1
:1051E800E9D2012BE7D00028ECD0E4E709B100238D
:1051F8002B7030BC704700BFCDCCCCCC2DE9F04F24
:1052080089B092469B469DF84C3001939DF85070AA
:10521800142400970F460646129D5AEA0B0318D02D
:105228004FEAE5792A464B4650465946FAF7A8FF11
:10523800274B13441A7808AB234403F8182C2A4642
:105248004B4650465946FAF79BFF82468B46013C2F
:10525800E3E735463E46009F142C0BD00134159BDE
:1052680004EB0308B8F1150F0AD0A8F11508A146F8
:10527800019C0FE0302208AB234403F8182CEEE71A
:105288004FF00008A146019C04E031463846A84783
:1052980008F1FF38B8F1000F03DD002CF5D14C46BA
:1052A80000E04C46142C07D808AB2344314613F8C9
:1052B800180CA8470134F5E7B8F1000F05DD3146B1
:1052C8003846A84708F1FF38F6E709B0BDE8F08F7F
:1052D800E04F020808B50B6801330B60014B1B68EF
:1052E800984708BDB4090020014B1860704700BFFB
:1052F800B409002000B583B002460B460021019195
:1053080001A9034814F0F7FC03B05DF804FB00BFE3
:10531800DD52000810B584B00446019002910021C6
:10532800039101A9054814F0E6FC039B029A9342F5
:1053380001DA0022E254039804B010BDCD9C0108A4
:105348002DE9F04105684668023546F100064FF040
:10535800000C6746E6462CE01A4B13F80C40C4F1E3
:105368002001A4F1200325FA04F206FA01F10A4308
:1053780026FA03F31A43144BA3FB02239B08A4F158
:105388002008C4F1200203FA08F123FA02F21143BB
:10539800A3404FEA81089A0048EA9374D21841EB77
:1053A8000404AD1A66EB0406FF184EEB010E0CF16F
:1053B800010CBCF1020FCFDD0760C0F804E0BDE8C6
:1053C800F08100BF00500208CDCCCCCC2DE9F04FC5
:1053D80089B0864600909DF848709DF84C10019160
:1053E8009DF850609DF854C0169DC3F30A54D90225
:1053F80041EA5251D00221F0004104900591002A5F
:1054080073F1000305DB96B3009E2B2306F8013BDE
:1054180003E076462D2306F8013B40F2FF739C42D9
:105428002FD0462F59D0049B44EA030A0599E31765
:1054380043EA010B5AEA0B0307D0002C4FD0A4F221
:10544800FE34059B43F0004305934FF0000814F128
:10545800020F7BDA049805990023002B08BFB1F1ED
:10546800333F4BD304A815F07FF90134F2E7BCF1C0
:10547800000F04D0009E202306F8013BCDE7009ED4
:10548800CBE7DDE90423134316D1413F192F0BD88D
:10549800492333704E237370F31C4622B2700022E6
:1054A8001A70009A981A42E1692333706E23737058
:1054B800F31C6622B270F2E7413F192F06D84E223C
:1054C800327041237370F31CB270E8E76E223270B9
:1054D80061237370F31CB270E1E76627A3E7049BAE
:1054E800059A13EB030842EB0209CDE90489B8F1E8
:1054F800000F79F10003A2DB013CF0E74FEA810CD1
:1055080083004CEA9072181842EB0101049005914F
:10551800013408F1FF38049B059A0021002908BFCF
:10552800B2F1004F93D2DB18524104930592013C2B
:10553800F1E7DB18524104930592013C049B059A5C
:105548000021002908BFB2F1004FF2D3002C0ADD78
:1055580004A8FFF7F5FE013C08F10108EEE704A8EE
:1055680015F002F90134032CF9DD002D13DB672F48
:1055780013D0472F11D04FF0000A662F27D06C1C8C
:10558800102307939C4200DD1C4600224FF0006365
:10559800CDE9022329E00625E9E718F1030F01DB2D
:1055A80045450BDA023FFFB2002D00DD013D019BAE
:1055B80053B9002D06DD4FF0010ADEE7A5EB08051B
:1055C8006627F4E79A46D8E74FF0000AD5E715EBC7
:1055D8000804D5D5102307930024D6E702A8FFF7BF
:1055E800AFFE02A815F0C0F84C4604F1FF39002CB4
:1055F800F4D1049B029A9B18059A039941EB020285
:105608000493059202F07040002150EA010309D189
:10561800662F40F08F80B8F1000F14DC302306F8B5
:10562800013B1AE004A8FFF78BFE04A815F09CF8CC
:1056380008F10108ECE707A904A815F0A7F806F88F
:10564800010B08F1FF38B8F1000F02DD079B002BB2
:10565800F1DC179BC3F80080A046019B0BB9002D15
:1056680013DD33462E2203F8012BB8F1000F17DAA9
:10567800002D15DDC8F1000217994A60AA4200DD25
:105688004D60179A5268AD1A0AE03346EDE71C469A
:1056980007A904A815F07AF804F8010B013D234680
:1056A800002D02DD079A002AF1DC179A9560BAF1FD
:1056B800000F0AD0002217998A601A46134612F87A
:1056C800011D3029FAD02E2958D0652F01D0452F39
:1056D80029D11F70B8F1000F52DB991C2B225A7088
:1056E800B8F1630F0DDD294A82FB08324FEAE873EF
:1056F800C3EB621303F1300201F8012B642202FBB1
:105708001388234B83FB08234FEAE872C2EBA302FA
:1057180002F130000B4603F8020B02EB8202A8EB01
:10572800420230324A7000221A70009A981A09B060
:10573800BDE8F08F07A904A815F028F8334603F848
:10574800010B302801D008F1FF38019A0AB9002D61
:105758000CDDB31C2E22727008E01C4607A904A8B1
:1057680015F014F804F8010B013D2346002D02DD65
:10577800079A002AF1DC179A956098E71346A4E780
:10578800C8F10008991C2D225A70A9E71F85EB5112
:10579800676666662DE9F04F99B006460D460D928C
:1057A8000C93002400E001340D9B5A1C0D921878CC
:1057B80038B1252818D02946B047B0F1FF3FF2D1BB
:1057C8000446204619B0BDE8F08F4FF0010813E0F9
:1057D8000123079310E0012308930DE04FF001091E
:1057E8000AE04FF0010A07E04FF00009CDF81C90DD
:1057F800C846CA46CDF820900D9B5A1C0D921F78BA
:105808003946C54816F0FDFF70B3002FD9D0302FA8
:10581800F2D8202FF0D3203F102FEDD801A353F852
:1058280027F000BFD95700080158000801580008A0
:10583800DF570008015800080158000801580008FF
:1058480001580008015800080158000801580008CC
:10585800D357000801580008EB5700080158000802
:1058680001580008E55700082A2F00F01981A7F110
:105878003003092B40F2258100230A932E2F00F0D4
:1058880029814FF0FF3B09973946A44816F0B9FF24
:10589800002800F03D810D9B5A1C0D921F78099934
:1058A800682900F02C81002310930F930E930B9717
:1058B800782F00F25B8201A353F827F0CB5700083A
:1058C800755D0008755D0008755D0008755D000868
:1058D800755D0008755D0008755D0008755D000858
:1058E800755D0008755D0008755D0008755D000848
:1058F800755D0008755D0008755D0008755D000838
:10590800755D0008755D0008755D0008755D000827
:10591800755D0008755D0008755D0008755D000817
:10592800755D0008755D0008755D0008755D000807
:10593800755D0008755D0008755D0008755D0008F7
:10594800755D0008755D0008755D0008755D0008E7
:10595800635D0008755D0008755D0008755D0008E9
:10596800755D0008755D0008755D0008755D0008C7
:10597800755D0008755D0008755D0008755D0008B7
:10598800755D0008755D0008755D0008755D0008A7
:10599800755D0008755D0008755D0008755D000897
:1059A800755D0008755D0008755D0008755D000887
:1059B800755D0008755D0008755D0008755D000877
:1059C800755D0008755D0008755D0008755D000867
:1059D800E55B0008E55B0008E55B0008755D00080D
:1059E800755D0008755D0008755D0008755D000847
:1059F800755D0008755D0008755D0008755D000837
:105A0800755D0008755D0008755D0008755D000826
:105A1800755D0008755D0008755D0008F95C000893
:105A2800755D0008755D0008755D0008755D000806
:105A3800755D0008755D0008755D0008755D0008F6
:105A4800755D0008755D0008295B0008935B000818
:105A5800E55B0008E55B0008E55B0008755D00088C
:105A6800935B0008755D0008755D0008755D0008AA
:105A7800755D00085D5C0008F95C0008AF5C000813
:105A8800755D0008755D0008CB5C0008755D000851
:105A9800F95C0008755D0008755D0008F95C000890
:105AA8000C9B1A1D0C921B680A93002B04DB0D9BA0
:105AB8005A1C0D921F78E1E65B420A934FF0010AE7
:105AC800F5E70DA814F07EFE0A900D9B5A1C0D9266
