:020000040800F2
:10000000684C00208D8F00082D7B0108B98F0008F7
:10001000B98F0008B98F0008B98F000800000000F0
:10002000000000000000000000000000258D000816
:10003000B98F000800000000DD8C0008E580000892
:10004000658F0008658F0008658F0008658F0008C0
:10005000658F0008658F0008658F0008658F0008B0
:10006000658F0008658F0008658F0008658F0008A0
:10007000658F0008658F0008658F0008658F000890
:10008000658F0008658F0008658F0008658F000880
:10009000658F0008658F0008658F0008658F000870
:1000A000658F0008658F0008658F0008658F000860
:1000B000658F0008658F0008658F0008658F000850
:1000C000658F0008658F0008658F0008658F000840
:1000D000658F0008658F0008658F0008658F000830
:1000E000658F0008658F0008658F0008658F000820
:1000F000658F0008658F0008658F0008658F000810
:10010000658F0008658F0008658F0008658F0008FF
:10011000658F0008658F0008658F0008658F0008EF
:10012000658F0008658F0008658F0008658F0008DF
:10013000658F0008658F0008658F0008658F0008CF
:10014000658F0008658F0008658F0008658F0008BF
:10015000658F0008658F0008658F0008658F0008AF
:10016000658F0008658F0008658F0008658F00089F
:10017000658F0008658F0008658F0008658F00088F
:08018000658F0008658F00087F
:1001880053B94AB9002908BF00281CBF4FF0FF31F6
:100198004FF0FF3000F06EB9ADF1080C6DE904CEF8
:1001A80000F006F8DDF804E0DDE9022304B070474A
:1001B8002DE9F047089D0E4604468C46002B40F07A
:1001C80081808A42174645D9B2FA82F24AB1C2F111
:1001D800200106FA02F320FA01F1974041EA030CE4
:1001E80094404FEA174E230CBCFBFEF6B9B20EFB47
:1001F80016CC43EA0C4306FB01F0984209D9FB18D8
:1002080006F1FF3C80F01581984240F21281023ECF
:100218003B441B1AA4B2B3FBFEF00EFB103344EAB6
:10022800034400FB01F1A14209D93C1900F1FF3355
:1002380080F00181A14240F2FE8002383C44641AF9
:1002480040EA064000211DB1D4400023C5E900431F
:10025800BDE8F08702B9FFDEB2FA82F2002A4FD178
:10026800CB1B4FEA174E1FFA87F80121B3FBFEFCA0
:10027800260C0EFB1C3346EA034608FB0CF3B3427C
:1002880007D9BE190CF1FF3002D2B34200F2EB805D
:100298008446F61AA3B2B6FBFEF00EFB106643EADC
:1002A800064408FB00F8A04507D93C1900F1FF33C4
:1002B80002D2A04500F2D2801846A4EB080440EA16
:1002C8000C40C0E78B4208D9002D00F0AF80002118
:1002D800C5E900060846BDE8F087B3FA83F10029AE
:1002E80049D1B34202D3824200F2BB80841A66EB42
:1002F800030301209C46002DAAD0C5E9004CA7E7BE
:10030800C2F120039740D8409140DE404FEA174E93
:1003180008434FEA104CB6FBFEF11FFA87F80EFBB4
:1003280011664CEA064601FB08F3B34204FA02F4EC
:1003380009D9BE1901F1FF3C80F08E80B34240F22A
:100348008B8002393E44F31A86B2B3FBFEF00EFBF3
:10035800103346EA034600FB08F3B34207D9BE1937
:1003680000F1FF3C74D2B34272D902383E44F31A0A
:1003780040EA01417AE7C1F1200703FA01F422FAC1
:1003880007F31C4320FA07F906FA01F34FEA144C65
:10039800FE4049EA03094FEA1943B6FBFCFE1FFA7F
:1003A80084F80CFB1E6643EA06460EFB08FAB245C3
:1003B80002FA01F200FA01F308D9A6190EF1FF308A
:1003C80048D2B24546D9AEF1020E2644A6EB0A063B
:1003D8001FFA89F9B6FBFCF00CFB106649EA0646E1
:1003E80000FB08F8B04507D9A61900F1FF3C2DD24B
:1003F800B0452BD90238264440EA0E40A6EB080641
:10040800A0FB02894E45C446CE4618D315D075B315
:10041800B3EB0C0266EB0E0606FA07F722FA01F3B5
:10042800CE401F43C5E90076002111E7294628463A
:100438000EE76646EDE6184601E74345E7D2B8EB16
:10044800020C69EB04040138A646E0E76046D3E7EE
:1004580060468CE78646B9E7614674E702383C4453
:100468002BE7084647E7ACF1020C3E4411E7294662
:10047800EEE600BF704700BF08B50B4BBFF35B8FBC
:1004880053E8002F42F0010143E800100028F7D19B
:10049800BFF35B8F12F0010F00D008BDA3F1080174
:1004A80002481CF0DFFAF8E72801002008140020B1
:1004B80000B583B01CF0C6FD0A220023FFF760FEDA
:1004C800064B186042F210720023CDE9002304485D
:1004D80014F09AFA002003B05DF804FBA014002081
:1004E8008006002008B5034B187800F00DFB14F0C7
:1004F8006DFD08BDF234002008B5054B1B7883421A
:1005080004D0034B1870FFF7EDFF08BD0020FCE78F
:10051800F234002008B51CF095FD0A220023FFF7ED
:100528002FFE034B18600020FFF7E6FF08BD00BF51
:10053800A014002008B51CF085FD0A220023FFF74F
:100548001FFE064B1B68C01A47F23053984200DC66
:1005580008BD0120FFF7D0FFFAE700BFA014002074
:10056800F0B58DB019E0214B04932B46052269465E
:100578001F4803F07BFF08948DF824601CF062FD8F
:100588000A220023FFF7FCFDCDE90A010CAB13E9B1
:100598000F0000F0C5FA14F019FD0022002305A988
:1005A800144813F0A3FAF8B9079FB7FA87F6760943
:1005B8000699059800F08CF80446042363F30205B5
:1005C8006FF3C5050C4B0D4A9B1AC3F3C90363F3BC
:1005D8008F150B4B0093059B0193069B0293039089
:1005E800002FC0D1074BBFE70DB0F0BD9CD8010864
:1005F800A4D80108F8070020A0D70108D0D6010820
:10060800F8D8010894D8010800B585B00191029284
:1006180083F0010303930022002301A90D4813F07E
:100628000DFA0D4BBFF35B8F53E8002F42F0010129
:1006380043E800100028F7D1BFF35B8F12F0010FD9
:1006480002D005B05DF804FBA3F1080103481CF0D3
:1006580009FAF6E7F8070020AC1400200814002077
:1006680010B512F077FF88B10446134B00221A60C8
:10067800124959609A6083681B6811499847A368B2
:100688009B68BBB120469847002010BD4FF0000181
:10069800012363F302016FF3C5010A4B0A4A9B1A4F
:1006A800C3F3C90363F38F11084803F04BFF6FF0DE
:1006B8001500EAE70020E8E7A4140020690500080F
:1006C80011060008A0D70108D0D60108D8D801081B
:1006D800063100EB400001EB8001024B53F821008A
:1006E800704700BF10D90108F0B583B005461A4A13
:1006F80052F82030013342F8203004274FF000022E
:1007080067F302026FF3C502144C1549641AC4F367
:10071800C90464F38F12134EADF800200246314627
:10072800114803F0D3FC012202FA05F50F4B1A78A1
:100738002A43D2B21A700E4B5A704FF0000367F377
:1007480002036FF3C50364F38F133146094803F0BE
:1007580009FE002003B0F0BDB0140020A0D70108A6
:10076800D0D6010860DA0108C4D90108F3340020A2
:100778003C010020E0D9010870B582B00446344B32
:1007880053F82030002B35DD013B314E46F8203040
:100798004FF00001042262F302016FF3C5012D4AF4
:1007A8002D48121AC2F3C90262F38F112B4DADF80E
:1007B8000010224629462A4803F088FC56F82430BF
:1007C8006BB3284B1A78284B5A704FF0000304215A
:1007D80061F302036FF3C5031E491F48091AC1F3E9
:1007E800C90161F38F132946204803F0BBFD00209F
:1007F80002B070BD4FF00002012363F302026FF3F1
:10080800C502144B14495B1AC3F3C90363F38F126F
:100818000146174803F026FD6FF01500E8E70422AB
:1008280062F302036FF3C5030A4A0B49521AC2F373
:10083800C90262F38F13224629460E4803F092FD3F
:100848000120A040074B1C7824EA00041C70B8E77C
:10085800B0140020A0D70108D0D6010878DA010822
:1008680028DA0108F33400203C010020E0D901080F
:10087800FCD9010844DA010808B50C4B1A78024380
:100888000B4B5A704FF00003042161F302036FF31E
:10089800C50308490848091AC1F3C90161F38F1350
:1008A8000649074803F05EFD002008BDF334002028
:1008B8003C010020A0D70108D0D6010890DA010831
:1008C800E0D9010808B50C4B1A780C4B5A704FF058
:1008D8000003042161F302036FF3C50308490948C3
:1008E800091AC1F3C90161F38F130749074803F0D7
:1008F80039FD002008BD00BFF33400203C01002072
:10090800A0D70108D0D60108B4DA0108E0D9010857
:1009180008B5A0F1E003072B01D9002305E020303A
:10092800C0B2FFF7E1FE0FE00133052B0BDC074AED
:100938001A44D278002AF7D1044A1A44D070002801
:10094800F2D0002000E0002008BD00BF3C010020DC
:1009580008B5A0F1E003072B01D9002305E02030FA
:10096800C0B2FFF709FF0DE00133052B09DC064A89
:100978001A44D2788242F7D1034A1A440021D1702E
:10098800F2E7002008BD00BF3C01002008B508229E
:100998000021024817F093FA08BD00BF3D0100206E
:1009A800002300E00133052B0DDC084A02EB43026B
:1009B800B2F80120002AF5D1044A02EB4302A2F85A
:1009C80001000028EED00020704700BF2C01002055
:1009D800002300E00133052B0DDC084A02EB43023B
:1009E800B2F801208242F5D1044A02EB4302002109
:1009F80051709170EEE70020704700BF2C01002075
:100A080008B50C220021024817F059FA08BD00BFAA
:100A18002D010020004870473C0100200048704725
:100A28002C010020F8B506462F4F304BFF1AFF1057
:100A38000C4600252CE04FF00003042262F3020369
:100A48006FF3C5032A4A2B49521AC2F3C90262F34B
:100A58008F132A462849294803F084FC12E04FF0F6
:100A68000002042363F302026FF3C502204B2149FD
:100A78005B1AC3F3C90363F38F121F49204803F0BD
:100A8800F1FB002530461CF0D4FB2846F8BD0134A4
:100A9800FBB29C42F6DA154B03EBC40153F8342041
:100AA80033689A42F3D14B681B6830469847051E55
:100AB800C1DB002DEBDD012DD1D0022DE7D14FF0A8
:100AC8000002042363F302026FF3C502084B0949CD
:100AD8005B1AC3F3C90363F38F120749094803F08C
:100AE800C1FB34710025D0E7CC1E02089C1E020809
:100AF800A0D70108D0D601083CDB0108D8DA0108E4
:100B0800FCDA01081CDB010810B504460C2014F0BF
:100B18001BFA024A0260047210BD00BF78DB0108AC
:100B280070B584B06C4684E80F00182014F00CFAF5
:100B380006460546044B45F8083B94E80F0085E84F
:100B48000F00304604B070BD98DB01080268034B03
:100B58009A4201D1083070470020704798DB01089D
:100B68000268034B9A4201D1083070470020704751
:100B7800D4DB010810B582B06C4684E8030010206D
:100B880014F0E2F903460246044942F8081B94E8C7
:100B9800030082E80300184602B010BD30DC0108EB
:100BA80010B504460C2014F0CFF9024A0260047212
:100BB80010BD00BF50DC010810B504460C2014F02D
:100BC800C3F9024A0260047210BD00BF70DC01085C
:100BD80082B008B502A981E80C004168032913D83E
:100BE800DFE801F002080B0E00F04CFEBDE80840FB
:100BF80002B0704700F0D6FEF8E700F0F3FEF5E724
:100C0800007A00F0A1FEF1E74FF00002012363F340
:100C180002026FF3C502064B06481B1AC3F3C90349
:100C280063F38F12044803F01DFB6FF02200DDE729
:100C3800A0D70108D0D6010874DC010800B583B03C
:100C4800094B1B788DF80030084A162101FB032355
:100C5800019302AB13E90300FFF78CFF14F0B6F918
:100C680003B05DF804FB00BFF4340020D414002066
:100C780008B501220249034805F028FB08BD00BF5A
:100C8800F4340020A4DC010810B5054C20461CF003
:100C98004FF9044A00232146034813F0D9FC10BD3C
:100CA800700A0020C0270900081400202DE9F04729
:100CB80094B006460F46904699464FF00005042327
:100CC80063F302056FF3C505864C874BE41AC4F33A
:100CD800C90464F38F15DFF858A203F0F3F802464D
:100CE8002B465146814803F03DFB13AA8049304604
:100CF80016F007F9002800F0C6801398002800F0C5
:100D0800C2800A2207A916F0BEFFC2B2079B1B7851
:100D1800DBB9162F32D1002A46D1C5B21622754941
:100D280002FB05114846C047041E53DD162303FB8A
:100D380005F308336F4A1344DC1DDB79032B00F2FB
:100D48009C80DFE803F05A8B90954FF00004022353
:100D580063F302046FF3C504624B634A9B1AC3F33F
:100D6800C90363F38F14139803F0ACF801462246C5
:100D7800614803F077FA6FF015048EE04FF0000336
:100D8800012262F302036FF3C503564A5649521A09
:100D9800C2F3C90262F38F1316223946574803F08B
:100DA800E1FA6FF0150478E04FF00003022262F3D5
:100DB80002036FF3C5034B4A4B49521AC2F3C902E7
:100DC80062F38F130122C1B24D4803F0CBFA6FF0E2
:100DD800150462E04FF00002012363F302026FF38F
:100DE800C502404B40495B1AC3F3C90363F38F1232
:100DF8002146444803F036FA4FE0434908A816F064
:100E0800C3FF63792279E178A078667808AF0597FF
:100E180004960390029101920093A3793B4A1E2104
:100E28000BA814F0E8FB4FF00004042363F302045A
:100E38006FF3C5042B4B2C4A9B1AC3F3C90363F306
:100E48008F140BA803F03EF80246ADF800402B467D
:100E580051462F4803F03AF900241EE02D4908A80E
:100E680016F092FFCDE72C4908A816F08DFFC8E7C9
:100E78002A4908A816F088FFC3E7294A0A2108A8C2
:100E880014F0B9FBBDE713AA2649304616F039F825
:100E9800044610B1139B23B10024204614B0BDE8CA
:100EA800F087012F1AD101221F494846C047041E66
:100EB80001DD0024F1E74FF00002012363F3020291
:100EC8006FF3C502074B08495B1AC3F3C90363F301
:100ED8008F122146154803F0C5F9DEE76FF01504B7
:100EE800DBE700BFA0D70108D0D60108B8DC0108AD
:100EF800D4DC0108D4140020E0DC0108FCDC010883
:100F080028DD010860DD010898DD0108C0DD010861
:100F1800E4DD0108A0DD0108A8DD0108B4DD010851
:100F2800D0150208A8DC0108F43400200CDE010802
:100F380050E2010808B517F062FE084B1B7816212D
:100F480001FB03F10831064B19440722114416F03E
:100F580079FFB0FA80F0400908BD00BFF4340020E2
:100F6800D41400202DE9F04194B00F4616461D46D2
:100F780017F045FE04460378032B4BD8DFE803F04F
:100F8800023B4045264907A816F0FEFEA379627980
:100F98002179E07894F802C094F801E00DF1300866
:100FA80007AC0594CDF810E0CDF80CC00290019183
:100FB80000921C4A1E21404614F01DFB4FF000030E
:100FC800042262F302036FF3C5031748174A801A15
:100FD800C0F3C90060F38F13154A0792CDF820803B
:100FE80009970A960B9505222146124803F03EFA06
:100FF80014B0BDE8F081104907A816F0C5FEC5E792
:101008000E4907A816F0C0FEC0E70D4907A816F05C
:10101800BBFEBBE70B4A0A2107A814F0ECFAB5E7B8
:1010280098DD0108C0DD0108A0D70108D0D6010865
:1010380098E2010844DE0108A0DD0108A8DD0108E6
:10104800B4DD0108D015020870B592B017F0D7FDCD
:1010580004460378032B4CD8DFE803F0023C4146F2
:10106800274907A816F090FEA37962792179E078DC
:10107800A578647807AE05960494039502900191CB
:101088000092204A1E210AA814F0B5FA1E4B1868CF
:1010980020B117F06BFD1C4B00221A6000231B4A7D
:1010A80013704FF00004042262F3020463F3C504D2
:1010B800174B184A9B1AC3F3C90363F38F140AA882
:1010C80002F000FF024623461349144803F04AF988
:1010D80012B070BD124907A816F056FEC4E71149B0
:1010E80007A816F051FEBFE70F4907A816F04CFEF7
:1010F800BAE70E4A0A2107A814F07DFAB4E700BF40
:1011080098DD0108C0DD0108D0140020F634002065
:10111800A0D70108D0D60108ACE2010870DE0108AA
:10112800A0DD0108A8DD0108B4DD0108D01502081A
:10113800F0B593B00E46154617F061FD04460378E6
:10114800032B46D8DFE803F002363B40314907A8B5
:1011580016F01AFEA37962792179E078A778647885
:101168000DF11C0CCDF814C0049403970290019162
:101178000092294A1E210AA814F03DFA7DBB4FF0BF
:101188000004042363F302046FF3C504234B244AC9
:101198009B1AC3F3C90363F38F140AA802F092FEE3
:1011A8000246ADF8004033461E491F4802F08EFF44
:1011B80013B0F0BD1D4907A816F0E6FDCAE71C49A3
:1011C80007A816F0E1FDC5E71A4907A816F0DCFDE7
:1011D800C0E7194A0A2107A814F00DFABAE74FF038
:1011E8000004012363F302046FF3C5040B4B0C4A9C
:1011F8009B1AC3F3C90363F38F140AA802F062FEB3
:101208000146ADF800402B4632460C4802F05EFF1E
:10121800CEE700BF98DD0108C0DD0108A0D70108AE
:10122800D0D6010884E201088CDE0108A0DD01089F
:10123800A8DD0108B4DD0108D0150208B0DE0108F8
:10124800F0B593B005460E4617F0D9FC044603786E
:10125800032B5AD8DFE803F0024A4F54454907A840
:1012680016F092FDA37962792179E078A7786478FD
:101278000DF11C0CCDF814C0049403970290019151
:1012880000923D4A1E210AA814F0B5F94FF0000457
:10129800042363F302046FF3C504384B384A9B1ADE
:1012A800C3F3C90363F38F14364F0AA802F00AFE8A
:1012B8000246ADF8004033463946334802F006FF8F
:1012C800324BBFF35B8F53E8002F42F0010143E834
:1012D80000100028F7D1BFF35B8F12F0010F1AD06E
:1012E8002846FFF727FEE0B913B0F0BD284907A844
:1012F80016F04AFDB6E7274907A816F045FDB1E7FD
:10130800254907A816F040FDACE7244A0A2107A89A
:1013180014F071F9A6E7A3F1080121481BF0A2FB1C
:10132800DEE74FF00002042363F302026FF3C50205
:10133800124B13495B1AC3F3C90363F38F1239467F
:10134800184802F08FFF184BBFF35B8F53E8002F4C
:1013580042F0010143E800100028F7D1BFF35B8F8A
:1013680012F0010FC0D1A3F108010D481BF07AFB60
:10137800BAE700BF98DD0108C0DD0108A0D7010861
:10138800D0D6010874E20108D4DE0108AC010020BF
:10139800A0DD0108A8DD0108B4DD0108D0150208A8
:1013A8000814002000DF0108A001002000B583B068
:1013B8000B4B1B78162000FB03F00830094B184430
:1013C80000230093CDF8033007226946104416F035
:1013D80039FDB0FA80F0400903B05DF804FB00BFA6
:1013E800F4340020D41400202DE9F04196B0804652
:1013F8000C460B78032B6ED8DFE803F0025E6368B7
:101408003B4907A816F0C0FC63792279E178A078F7
:10141800657807AE059604950390029101920093B2
:10142800A379344A1E210AA814F0E5F8324E16278B
:1014380007FB08F505F1080030440722214610444F
:1014480016F018FD42462D4912A808F091F94FF000
:101458000004042363F302046FF3C504284B294AEC
:101468009B1AC3F3C90363F38F1412A802F02AFD71
:1014780080460AA802F026FD0346ADF80040424621
:101488002149224802F022FE3A46711912A804F0B6
:101498001DFF1F4BBFF35B8F53E8002F42F0010184
:1014A80043E800100028F7D1BFF35B8F12F0010F5B
:1014B80017D016B0BDE8F081164907A816F064FCED
:1014C800A2E7154907A816F05FFC9DE7134907A88E
:1014D80016F05AFC98E7124A0A2107A814F08BF86C
:1014E80092E7A3F108010F481BF0BCFAE1E700BF3F
:1014F80098DD0108C0DD0108D414002020DF0108B0
:10150800A0D70108D0D60108D8E1010830DF0108CA
:10151800A0010020A0DD0108A8DD0108B4DD010854
:10152800D015020808140020044B1B78162000FB75
:1015380003F00830024B184407307047F434002099
:10154800D4140020F0B597B0FFF730FF002842D040
:1015580002244FF00002042363F302026FF3C50272
:10156800AF4BB0495B1AC3F3C90363F38F12AE4E96
:10157800AE4DADF8002023462A783146AC4802F03B
:10158800A5FD2B7804EB0314013C202C00F26F819D
:10159800DFE814F0A60031016D016D016D016D01E8
:1015A8006D016D016D016D016D016D016D016D01C3
:1015B8006D0128004200F3006D016D016D016D01A0
:1015C8006D016D016D016D016D016D016D016D01A3
:1015D8006D012800420013F00AFD08B10024B8E7A5
:1015E8000224B6E70BF0F0F9904B00221A7004467B
:1015F800002800F01281012363F302026FF3C50291
:10160800874B88495B1AC3F3C90363F38F120146FA
:10161800884802F027FE2BE10BF0D6F9834B002215
:101628001A700446F0B9FFF77FFF0546014600200F
:101638000BF0FCFF074630B34FF00002042363F3BE
:1016480002026FF3C502764B76495B1AC3F3C903EE
:1016580063F38F123146784802F004FE384617F0DB
:1016680085FA05E1012363F302026FF3C5026C4BAF
:101678006C495B1AC3F3C90363F38F1201466D48C3
:1016880002F0F0FDF4E000238DF808308DF8093001
:101698008DF80A3013220392A0220492F0220592B8
:1016A800069500930322654902A816F0DDFF04465B
:1016B80018B95E4B01221A70AFE04FF00002012307
:1016C80063F302026FF3C502554B56495B1AC3F325
:1016D800C90363F38F120146594802F0C3FDC7E0FE
:1016E800FFF722FF0446014600200BF09FFF054646
:1016F800B0B14FF00002042363F302026FF3C50296
:10170800474B48495B1AC3F3C90363F38F12314649
:10171800494802F0A7FD284617F028FA0024A7E058
:1017280000238DF81C308DF81D308DF81E301322E3
:101738000892A0220992F0220A920B9400930322A5
:101748003E4907A816F090FF044618B9374B012206
:101758001A7062E04FF00002012363F302026FF394
:10176800C5022F4B2F495B1AC3F3C90363F38F12CA
:101778000146334802F076FD7AE00BF025F92B4B51
:1017880000221A70044690B90CAC2E4D0FCD0FC430
:101798002B68236000230093032228490CA816F025
:1017A80063FF0446A0B9214B02221A7035E00123D9
:1017B80063F302026FF3C502194B1A495B1AC3F3AC
:1017C800C90363F38F1201461A4802F04BFD4FE03C
:1017D8004FF00002012363F302026FF3C502104BBE
:1017E80010495B1AC3F3C90363F38F120146144807
:1017F80002F038FD3CE011AC124D0FCD0FC42B6840
:1018080023600023009303220C4911A816F02CFF33
:101818000446C8B9054B02221A70002428E000BF0C
:10182800A0D70108D0D60108ECE10108F534002062
:1018380058DF010878DF01089CDF0108E0E20108B1
:10184800D8DF0108B8D701084FF00002012363F37D
:1018580002026FF3C502084B08495B1AC3F3C903B8
:1018680063F38F120146064802F0FCFC00E00024F6
:10187800204617B0F0BD00BFA0D70108D0D6010898
:10188800D8DF010810B584B04FF00002042363F3D9
:1018980002026FF3C502254B25495B1AC3F3C9033E
:1018A80063F38F12234C2146234802F0DBFC234BC1
:1018B8001B78162000FB03F00830214B1844002346
:1018C8000093CDF8033007226946104416F0BAFA9F
:1018D80020B9FFF737FE002004B010BD4FF000021A
:1018E800042363F302026FF3C502104B10495B1A1D
:1018F800C3F3C90363F38F122146124802F0B2FC06
:101908000E4C2378162101FB03F108310C4B1944C6
:101918000731002009F062FE00230293CDF80B3056
:1019280002A92078FFF760FDD3E700BFA0D7010820
:10193800D0D6010800E2010800E00108F4340020D4
:10194800D414002008E0010810B504464FF0000345
:10195800042262F302036FF3C5030D4A0D49521ABC
:10196800C2F3C90262F38F1302460B490B4802F017
:10197800F9FC0B4B1B78A34207D0094B1C70FFF7EF
:1019880083F9FFF7DFFDFFF759F9002010BD00BF0D
:10199800A0D70108D0D6010814E2010818E0010810
:1019A800F434002008B54FF00002042363F3020268
:1019B8006FF3C502074B08495B1AC3F3C90363F306
:1019C8008F120649064802F04DFC0020FFF7BCFFC5
:1019D80008BD00BFA0D70108D0D6010828E2010839
:1019E80000E0010808B54FF00002042363F3020287
:1019F8006FF3C502074B08495B1AC3F3C90363F3C6
:101A08008F120649064802F02DFC0020FFF79CFFC4
:101A180008BD00BFA0D70108D0D601083CE20108E4
:101A280000E00108F0B59BB0054617F0E8F8044659
:101A38000378032B46D8DFE803F002363B402849F9
:101A480007A816F0A1F9A37962792179E078A67838
:101A580067780DF11C0CCDF814C00497039602901A
:101A6800019100921F4A1E210AA813F0C4FD12A971
:101A780028460BF097FF9DF84920012A28D04FF0FF
:101A88000003042161F302036FF3C50316491748E5
:101A9800091AC1F3C90161F38F131549154802F0FA
:101AA80061FC1BB0F0BD144907A816F06DF9CAE730
:101AB800124907A816F068F9C5E7114907A816F0F2
:101AC80063F9C0E70F4A0A2107A813F094FDBAE7A3
:101AD80021460D4B1878FFF787FCFFF733FDE0E749
:101AE80098DD0108C0DD0108A0D70108D0D601089B
:101AF800B8E2010828E00108A0DD0108A8DD010816
:101B0800B4DD0108D0150208F4340020F0B595B012
:101B180005460E4617F073F804460378032B00F2C7
:101B28008180DFE803F00270757A754906A816F01F
:101B38002BF9A37962792179E078A77864780DF197
:101B4800180CCDF814C004940397029001910092E8
:101B58006C4A1E2109A813F04EFD4FF0000404231F
:101B680063F302046FF3C504674B684A9B1AC3F317
:101B7800C90363F38F14664F12F050FC02462346E4
:101B88003946644802F0EEFB634B00221A70002EBF
:101B98004ED14FF00004042363F302046FF3C5042D
:101BA800594B5A4A9B1AC3F3C90363F38F1409A804
:101BB80002F088F9024623463946584802F0D2FB1B
:101BC80011AB574A92E8030083E8030019462846F8
:101BD80017F061F810F0FF0F44D1524BDB691393F3
:101BE80013A9284617F00DF80221284616F0D4FE4E
:101BF80000284AD1FFF7A6FC2846FFF79BF90028E2
:101C080055D115B0F0BD484906A816F0BDF890E7C3
:101C1800464906A816F0B8F88BE7454906A816F015
:101C2800B3F886E7434A0A2106A813F0E4FC80E7E4
:101C38004FF00004022363F302046FF3C504324B30
:101C4800324A9B1AC3F3C90363F38F1409A802F03D
:101C580039F9014623463246374802F083FBFFF73D
:101C680071FCCEE74FF00002022363F302026FF328
:101C7800C502254B25495B1AC3F3C90363F38F12C9
:101C8800C1B22E4802F0EEFAA7E74FF00001012397
:101C980063F302016FF3C5011B4B1C4A9B1AC3F384
:101CA800C90363F38F11264802F04CFCA2E74FF0FA
:101CB8000002042363F302026FF3C502124B1349B7
:101CC8005B1AC3F3C90363F38F1239461D4802F048
:101CD800C9FA1D4BBFF35B8F53E8002F42F0010197
:101CE80043E800100028F7D1BFF35B8F12F0010F13
:101CF80087D1A3F1080115481AF0B4FE81E700BFA7
:101D080098DD0108C0DD0108A0D70108D0D6010878
:101D180068E2010844E00108F534002080E0010889
:101D2800CCD70108B8D70108A0DD0108A8DD010853
:101D3800B4DD0108D015020860E0010894E001084C
:101D4800BCE00108D4E00108A0010020081400202C
:101D580010B504464FF00003042262F302036FF348
:101D6800C503114A1149521AC2F3C90262F38F130B
:101D780002460F490F4802F0F5FA14B9FFF7E2FBE3
:101D880010BD4FF00002012363F302026FF3C50296
:101D9800054B06495B1AC3F3C90363F38F12214647
:101DA800054802F05FFAEBE7A0D70108D0D6010892
:101DB800D0E20108F4E0010804E1010870B584B03C
:101DC80000200AF033FB58BB04F054FC3E4804F0F2
:101DD80019FB0546002837D13C493D481BF0A0F8BF
:101DE8003C4804F0AFFA3C4804F0ACFA4FF000016C
:101DF800022363F302016FF3C501384B384A9B1A7B
:101E0800C3F3C90363F38F11364802F09BFB2C46DA
:101E1800092C2CDC0021E0B209F0E0FB0134F7E7E3
:101E280005464FF00002012363F302026FF3C50277
:101E38002A4B2B495B1AC3F3C90363F38F1201467C
:101E4800294802F00FFA2AE04FF00002012363F359
:101E580002026FF3C502214B21495B1AC3F3C90380
:101E680063F38F120146214802F0FCF917E02C4673
:101E78000AE022461E49684607F07AFC684615F0D3
:101E88003AF8014670B90134002CF2DD19480BF01C
:101E980049FA19480BF00CFF0020FFF759FF2846B4
:101EA80004B070BD012363F302066FF3C5060B4B44
:101EB8000B4A9B1AC3F3C90363F38F1632460F48C4
:101EC80002F0D0F9DFE700BF80010020790C00089C
:101ED800700A00207413020874E10108A0D70108F1
:101EE800D0D6010878E1010824E101083CE10108A5
:101EF80020DF010860010020B0010020B8E10108DE
:101F080030B583B004468368DB682B21984758BBFB
:101F1800A3681B696A462B21204698470546002876
:101F280037D14FF00003042262F302036FF3C503B5
:101F38002B4A2C49521AC2F3C90262F38F13009A32
:101F480029492A4802F00EFA9DF8000002F04CFEDA
:101F5800054690BB9DF80000FEF722FE13F036F808
:101F68000546284603B030BD05464FF0000304225D
:101F780062F302036FF3C503194A1A49521AC2F3EE
:101F8800C90262F38F1302461749194802F0EAF9A9
:101F9800E7E74FF00003042262F302036FF3C5037F
:101FA8000F4A1049521AC2F3C90262F38F1302464C
:101FB8000D49104802F0D6F9D3E74FF0000202238A
:101FC80063F302026FF3C502054B06495B1AC3F3BC
:101FD800C90363F38F120146074802F043F9C0E7CB
:101FE800A0D70108D0D601080CE4010850E3010885
:101FF800F8E2010820E301087CE3010808B50D4B6D
:102008001868FFF77DFF00B908BD02464FF00003CE
:10201800042161F302036FF3C50307490748091A4E
:10202800C1F3C90161F38F130549064802F09AF913
:10203800EAE700BFEC140020A0D70108D0D60108B9
:1020480020E40108ACE3010808B50B4BBFF35B8F34
:1020580053E8002F42F0010143E800100028F7D1AF
:10206800BFF35B8F12F0010F00D008BDA3F1080188
:1020780002481AF0F7FCF8E7E001002008140020F5
:1020880010B582B01E4811F065FA1E4B186068B191
:10209800FFF736FF0446F0B91B4A0023CDE90023B9
:1020A8001A4812F0B1FC204602B010BD4FF00002F1
:1020B800042363F302026FF3C502154B15495B1A3B
:1020C800C3F3C90363F38F121349144802F0CAF823
:1020D8006FF01204E7E74FF00003042262F30203F3
:1020E8006FF3C5030A4A0B49521AC2F3C90262F3D5
:1020F8008F13024608490A4802F034F9D3E700BFB3
:10210800D4E30108EC140020C0270900B806002019
:10211800A0D70108D0D6010834E40108DCE301089F
:10212800ACE3010810B504464FF00002042363F342
:1021380002026FF3C5020D4B0D495B1AC3F3C903C5
:1021480063F38F120B490C4802F08CF82046FEF717
:10215800FDFC48B102791AB1007800F0EDF810BD25
:10216800007800F0F9F8FAE70020F8E7A0D70108AE
:10217800D0D6010848E4010800E0010810B584B091
:1021880010240294044C0194BDF81840009417F0F0
:10219800C9FE04B010BD00BFF014002008B50A46FF
:1021A8004FF00003042161F302036FF3C5030648EF
:1021B8000649401AC0F3C90060F38F130449054863
:1021C80002F0D0F808BD00BFA0D70108D0D601089A
:1021D800FCE401085CE4010810B58AB00022002381
:1021E80006A9154811F082FC20BB18220021684678
:1021F80015F065FE114B019306AB02931023ADF861
:102208000C30694600200EF0EDF802460028E5D0B3
:10221800042363F302046FF3C504094B09495B1AED
:10222800C3F3C90363F38F1423460749074802F031
:1022380099F8D3E70AB010BD8007002048E50108E7
:10224800A0D70108D0D6010814E501086CE40108FC
:1022580008B505234FF400720249034812F0D2F979
:10226800002008BDD0360020A00A002010B584B098
:102278004FF47A7200232849284811F0DFFB0446FE
:1022880080B310F10B0F12D04FF00002022363F35A
:1022980002026FF3C502224B22495B1AC3F3C9033A
:1022A80063F38F120146204801F0DCFF2AE04FF06B
:1022B8000001022363F302016FF3C501184B194AA9
:1022C8009B1AC3F3C90363F38F11184802F03AF954
:1022D800002200236946114811F008FCFFF7C6FFE9
:1022E80004460FE0124BBFF35B8F53E8002F42F018
:1022F800010143E800100028F7D1BFF35B8F12F00B
:10230800010F02D0204604B010BDA3F1080109480E
:102318001AF0A8FBF6E700BFF014002080070020A1
:10232800A0D70108D0D60108D0E4010884E4010848
:1023380058020020A00A002010B5C108054C635CB3
:1023480000F00700012202FA00F018436054FFF77A
:102358008DFF10BDF014002010B5C108064C635C59
:1023680000F00700012202FA00F023EA000060549E
:10237800FFF77CFF10BD00BFF014002008B502482D
:1023880012F052F808BD00BF2008002008B51E480A
:1023980011F0E0F81D4B186068B11D4B4C221D4927
:1023A80010F0FAFA194B186818F0B1FE1A4803F041
:1023B800F3FBA0B908BD4FF00001012363F302014C
:1023C8006FF3C501154B164A9B1AC3F3C90363F390
:1023D8008F11144802F0B6F86FF01500EAE74FF0D5
:1023E8000001012363F302016FF3C5010B4B0C4A93
:1023F8009B1AC3F3C90363F38F110B4802F0A2F8C9
:102408006FF01500D6E700BF98E501080015002019
:10241800D4E50108F8E50108C1240008A0D701089F
:10242800D0D60108A0E50108BCE5010838B5144B71
:102438001B780B2B0BD8DFE803F01F1F0A0A1F06B7
:102448000A0A0A0A0A1F14F030FC044616E0044679
:102458000D464FF4967200230A4812F00DF8002337
:102468002A4621460848006810F0B0FA044628B108
:10247800044811F0D9FF01E06FF01204204638BD7E
:10248800A10500202008002000150020094B1B781A
:10249800042B0AD005D8012B01D80120704702204F
:1024A80070470B2B03D10020704700207047022093
:1024B800704700BFA105002008B5024B187012F044
:1024C800C2FD08BDA105002010B584B04C240294BB
:1024D800044C0194BDF81840009417F023FD04B093
:1024E80010BD00BF14E9010808B505234FF40072B8
:1024F8000249034812F086F8002008BDD0380020B1
:10250800300B002010B582B0FFF70EF804464FF0EC
:102518000003042262F302036FF3C503204A214932
:10252800521AC2F3C90262F38F1302461E491F48AA
:1025380001F018FF00230093CDF803300722694605
:10254800204615F07FFC30B1214600200BF06EF8D4
:10255800A0B102B010BD4FF00001022363F30201E5
:102568006FF3C5010E4B0F4A9B1AC3F3C90363F3FC
:102578008F110F4801F0E6FF0020EAE74FF0000155
:10258800022363F302016FF3C501054B054A9B1A49
:10259800C3F3C90363F38F11064801F0D3FFEBE7D8
:1025A800A0D70108D0D60108B0E7010844E6010821
:1025B8005CE6010890E6010830B589B012E0012315
:1025C80063F302056FF3C505164B174A9B1AC3F34D
:1025D800C90363F38F152A46144801F043FE2046C9
:1025E80016F0C4FA0022002306A9114811F07EFA59
:1025F800B0B9FFF787FF044690B100230093039317
:10260800049305930B4B019306AB02930823ADF893
:102618000C3069460DF0E6FE01460028DFD0CEE713
:1026280009B030BDA0D70108D0D6010870E4010870
:10263800D00700204CE8010830B58BB013E0042324
:1026480063F302056FF3C505174B18495B1AC3F30B
:10265800C90363F38F152B461549164801F082FE0E
:10266800204616F083FA0022002307A9124811F029
:102678003DFAB0B9FFF746FF044690B10023019335
:102688000493059306930D4B029307AB03930C2316
:10269800ADF8103001A90DF0A5FE02460028DFD0E4
:1026A800CDE70BB030BD00BFA0D70108D0D60108D8
:1026B800C8E701086CE40108A8070020B0E8010891
:1026C80030B583B004464FF47A7200230146284897
:1026D80011F0B4F9054688B310F10B0F12D04FF082
:1026E8000002022363F302026FF3C502214B224961
:1026F8005B1AC3F3C90363F38F1201461F4801F045
:10270800B1FD2BE04FF00001022363F302016FF3E8
:10271800C501184B184A9B1AC3F3C90363F38F11F9
:10272800174801F00FFF002200236946104811F0F6
:10273800DDF92046FFF7C4FF05460FE0114BBFF354
:102748005B8F53E8002F42F0010143E80010002896
:10275800F7D1BFF35B8F12F0010F02D0284603B008
:1027680030BDA3F1080108481AF07CF9F6E700BF6C
:10277800D0070020A0D70108D0D6010808E7010833
:10278800C0E6010820030020300B002030B585B0DA
:1027980004464FF47A7200230146284811F04EF996
:1027A800054688B310F10B0F12D04FF00002022338
:1027B80063F302026FF3C502214B22495B1AC3F38C
:1027C800C90363F38F1201461F4801F04BFD2BE04C
:1027D8004FF00001022363F302016FF3C501184BA8
:1027E800184A9B1AC3F3C90363F38F11174801F002
:1027F800A9FE0022002301A9104811F077F920460C
:10280800FFF7C4FF05460FE0114BBFF35B8F53E89A
:10281800002F42F0010143E800100028F7D1BFF370
:102828005B8F12F0010F02D0284605B030BDA3F12E
:10283800080108481AF016F9F6E700BFA8070020B3
:10284800A0D70108D0D6010880E7010838E70108B9
:1028580014030020300B002010B512F058FC60B3B0
:1028680012F059FCA8B14FF00003042262F30203EE
:102878006FF3C503264A2749521AC2F3C90262F305
:102888008F13254C22782549254801F06BFD2078C7
:1028980029E04FF00002042363F302026FF3C5023C
:1028A8001B4B1C495B1AC3F3C90363F38F121B4903
:1028B8001C4801F0D7FC012015E012F02CFC98B957
:1028C8004FF00002042363F302026FF3C502104BBA
:1028D80010495B1AC3F3C90363F38F120F491248F7
:1028E80001F0C0FC012010BD4FF00002042363F387
:1028F80002026FF3C502064B06495B1AC3F3C9030C
:1029080063F38F120549094801F0ACFC0020EAE79F
:10291800A0D70108D0D60108F834002094EB0108AC
:1029280060E9010888E90108B8E90108A0E9010897
:1029380010B5FEF76FF8264B1978B1B101292DD0E3
:102948004FF00002012363F302026FF3C502214B2B
:1029580021481B1AC3F3C90363F38F121F4801F000
:1029680081FC6FF02204204610BD0921FFF75EFDAF
:1029780004460028F7D04FF00002012363F3020257
:102988006FF3C502134B14495B1AC3F3C90363F30E
:102998008F120146124801F065FCE4E70130FFF7A9
:1029A8008FFE04460028DED04FF00002012363F3B7
:1029B80002026FF3C502074B07495B1AC3F3C90349
:1029C80063F38F120146074801F04CFCCBE700BFC8
:1029D800A2050020A0D70108D0D601080CEA0108FA
:1029E800D4E90108F0E9010810B5FEF717F8264BFD
:1029F8001978B1B101292DD04FF00002012363F3FA
:102A080002026FF3C502214B21481B1AC3F3C90305
:102A180063F38F121F4801F025FC6FF02204204653
:102A280010BD0D21FFF702FD04460028F7D04FF036
:102A38000002012363F302026FF3C502134B14492A
:102A48005B1AC3F3C90363F38F120146124801F0FE
:102A580009FCE4E70130FFF799FE04460028DED0C0
:102A68004FF00002012363F302026FF3C502074B24
:102A780007495B1AC3F3C90363F38F12014607487A
:102A880001F0F0FBCBE700BFA2050020A0D70108AA
:102A9800D0D601080CEA0108D4E90108F0E90108D8
:102AA80010B503F0E7FD104803F0ACFC044640B94C
:102AB8000E490F481AF034FA0E4803F043FC20463A
:102AC80010BD4FF00002012363F302026FF3C50249
:102AD800094B0A495B1AC3F3C90363F38F12014612
:102AE800074801F0BFFBEAE7280300200D2B000888
:102AF800C00B002060EA0108A0D70108D0D6010861
:102B080024EA010808B501220249034803F0DEFB64
:102B180008BD00BFF83400206CEA010810B504466F
:102B28004FF00003042262F302036FF3C503154A52
:102B38001549521AC2F3C90262F38F1302461349A8
:102B4800134801F00FFC072C16D00C2C17D04FF0AF
:102B58000002012363F302026FF3C502094B0A491D
:102B68005B1AC3F3C90363F38F122146094801F0C6
:102B780079FB6FF0220001E0FFF7DAFE10BDFFF7E6
:102B880033FFFBE7A0D70108D0D6010860EB0108A6
:102B980080EA010898EA010810B5FFF75DFE0E4BC0
:102BA8001B78834200D110BD044612F0BCFA0A4BD0
:102BB8001C704FF00002032363F302026FF3C50297
:102BC800064B07495B1AC3F3C90363F38F12214607
:102BD800044801F047FBE6E7A2050020A0D701085A
:102BE800D0D60108B4EA01082DE9F84381460E461B
:102BF800174698464FF00005042363F302056FF368
:102C0800C505264C264BE41AC4F3C90464F38F1592
:102C180001F058F902462B462249234801F0A2FB4D
:102C280000222249484614F06CF9044650B1012E9E
:102C38000BD101221E494046B847041E1ADDFFF792
:102C4800ABFF00242046BDE8F88301224FF00003C3
:102C580062F302036FF3C50310491148091AC1F35F
:102C6800C90161F38F133146124801F07BFB6FF005
:102C78001504E7E74FF00002012363F302026FF344
:102C8800C502064B06495B1AC3F3C90363F38F12E7
:102C98002146094801F0E6FAD4E700BFA0D70108A9
:102CA800D0D601087CEB0108CCEA0108ECEA01085F
:102CB800F8340020F8EA010824EB010830B587B0A1
:102CC80004464FF00003042262F302036FF3C503C6
:102CD8002B4A2C49521AC2F3C90262F38F132A4AAB
:102CE80001920288029242680392027A0492427A1E
:102CF8000592052201A9254801F0B8FB2388072B76
:102D08000ED00C2B24D0607A12F03AF9207AFDF715
:102D1800B3FD2088FFF702FF0546284607B030BDFF
:102D28006068FDF7F5FD05460028ECD04FF000017E
:102D3800012363F302016FF3C501114B114A9B1A7A
:102D4800C3F3C90363F38F11114801F0FBFBE4E7F8
:102D58006068FDF725FE05460028D4D04FF0000135
:102D6800012363F302016FF3C501054B054A9B1A62
:102D7800C3F3C90363F38F11054801F0E3FBCCE704
:102D8800A0D70108D0D6010834EC0108B0EB01083F
:102D980000EC010830B587B004464FF00003042268
:102DA80062F302036FF3C5032B4A2C49521AC2F38C
:102DB800C90262F38F132A4A01920288029242687A
:102DC8000392027A0492427A0592052201A92548C3
:102DD80001F04CFB2388072B0DD00C2B23D0607AF5
:102DE80012F0E1F8FDF76EFD2088FFF797FE054623
:102DF800284607B030BD6068FDF7AAFD05460028E3
:102E0800EDD04FF00001012363F302016FF3C50118
:102E1800114B124A9B1AC3F3C90363F38F1112486B
:102E280001F090FBE4E76068FDF7D2FD0546002855
:102E3800D5D04FF00001012363F302016FF3C50100
:102E4800054B064A9B1AC3F3C90363F38F1106485F
:102E580001F078FBCCE700BFA0D70108D0D6010865
:102E680054EC0108B0EB010818EC010808B54FF064
:102E78000001032363F302016FF3C501064B074A00
:102E88009B1AC3F3C90363F38F11054801F05AFB7A
:102E98000448FDF7E5FB08BDA0D70108D0D6010816
:102EA80078EC01088CEC010830B4002494420FD26D
:102EB8000B5D43401809074D285680EA0310C3B23A
:102EC800C0F30310285680EA0310C0B20134EDE7BE
:102ED80030BC704798EC010830B4054600206423E4
:102EE8000FE0303405F8014B0139C9B20130C0B2E6
:102EF800B2FBF3F403FB1422D2B20A4CA4FB034343
:102F0800DB0849B143B1B2FBF3F49A42E9D2012B91
:102F1800E7D00028ECD0E4E709B100232B7030BCDF
:102F2800704700BFCDCCCCCC2DE9F04F89B092468C
:102F38009B469DF84C3001939DF8507014240097DF
:102F48000F460646129D5AEA0B0318D04FEAE57958
:102F58002A464B4650465946FDF712F9274B13446B
:102F68001A7808AB234403F8182C2A464B465046D7
:102F78005946FDF705F982468B46013CE3E735469D
:102F88003E46009F142C0BD00134159B04EB03081C
:102F9800B8F1150F0AD0A8F11508A146019C0FE059
:102FA800302208AB234403F8182CEEE74FF0000852
:102FB800A146019C04E031463846A84708F1FF388D
:102FC800B8F1000F03DD002CF5D14C4600E04C466B
:102FD800142C07D808AB2344314613F8180CA8471B
:102FE8000134F5E7B8F1000F05DD31463846A8474A
:102FF80008F1FF38F6E709B0BDE8F08FA8EC010842
:1030080008B50B6801330B60014B1B68984708BD76
:1030180040030020014B1860704700BF40030020A8
:1030280000B583B002460B460021019101A903486F
:1030380012F048F903B05DF804FB00BF093000083E
:1030480010B584B00446019002910021039101A9B2
:10305800054812F037F9039B029A934201DA0022DD
:10306800E254039804B010BD9B5201082DE9F041C9
:1030780005684668023546F100064FF0000C6746C1
:10308800E6462CE01A4B13F80C40C4F12001A4F1D9
:10309800200325FA04F206FA01F10A4326FA03F39B
:1030A8001A43144BA3FB02239B08A4F12008C4F184
:1030B800200203FA08F123FA02F21143A3404FEA6F
:1030C80081089A0048EA9374D21841EB0404AD1AB7
:1030D80066EB0406FF184EEB010E0CF1010CBCF177
:1030E800020FCFDD0760C0F804E0BDE8F08100BF43
:1030F800C8EC0108CDCCCCCC2DE9F04F89B0864680
:1031080000909DF848709DF84C1001919DF8506012
:103118009DF854C0169DC3F30A54D90241EA52518E
:10312800D00221F0004104900591002A73F10003B8
:1031380005DB96B3009E2B2306F8013B03E0764699
:103148002D2306F8013B40F2FF739C422FD0462FF7
:1031580059D0049B44EA030A0599E31743EA010B93
:103168005AEA0B0307D0002C4FD0A4F2FE34059B7B
:1031780043F0004305934FF0000814F1020F7BDA87
:10318800049805990023002B08BFB1F1333F4BD3B6
:1031980004A812F0D0FD0134F2E7BCF1000F04D00E
:1031A800009E202306F8013BCDE7009ECBE7DDE932
:1031B8000423134316D1413F192F0BD849233370E9
:1031C8004E237370F31C4622B27000221A70009AC4
:1031D800981A42E1692333706E237370F31C6622D8
:1031E800B270F2E7413F192F06D84E2232704123C0
:1031F8007370F31CB270E8E76E223270612373704B
:10320800F31CB270E1E76627A3E7049B059A13EB6A
:10321800030842EB0209CDE90489B8F1000F79F1FE
:103228000003A2DB013CF0E74FEA810C83004CEA83
:103238009072181842EB010104900591013408F1CD
:10324800FF38049B059A0021002908BFB2F1004FFE
:1032580093D2DB18524104930592013CF1E7DB1845
:10326800524104930592013C049B059A00210029D0
:1032780008BFB2F1004FF2D3002C0ADD04A8FFF713
:10328800F5FE013C08F10108EEE704A812F053FD31
:103298000134032CF9DD002D13DB672F13D0472FE2
:1032A80011D04FF0000A662F27D06C1C102307930B
:1032B8009C4200DD1C4600224FF00063CDE902234A
:1032C80029E00625E9E718F1030F01DB45450BDA8C
:1032D800023FFFB2002D00DD013D019B53B9002DD7
:1032E80006DD4FF0010ADEE7A5EB08056627F4E7DF
:1032F8009A46D8E74FF0000AD5E715EB0804D5D56C
:10330800102307930024D6E702A8FFF7AFFE02A810
:1033180012F011FD4C4604F1FF39002CF4D1049B46
:10332800029A9B18059A039941EB020204930592AD
:1033380002F07040002150EA010309D1662F40F0E5
:103348008F80B8F1000F14DC302306F8013B1AE037
:1033580004A8FFF78BFE04A812F0EDFC08F10108A1
:10336800ECE707A904A812F0F8FC06F8010B08F12D
:10337800FF38B8F1000F02DD079B002BF1DC179B2B
:10338800C3F80080A046019B0BB9002D13DD33461E
:103398002E2203F8012BB8F1000F17DA002D15DDE6
:1033A800C8F1000217994A60AA4200DD4D60179AD9
:1033B8005268AD1A0AE03346EDE71C4607A904A88F
:1033C80012F0CBFC04F8010B013D2346002D02DD71
:1033D800079A002AF1DC179A9560BAF1000F0AD013
:1033E800002217998A601A46134612F8011D3029DF
:1033F800FAD02E2958D0652F01D0452F29D11F701A
:10340800B8F1000F52DB991C2B225A70B8F1630FE8
:103418000DDD294A82FB08324FEAE873C3EB6213D9
:1034280003F1300201F8012B642202FB1388234BBD
:1034380083FB08234FEAE872C2EBA30202F13000D3
:103448000B4603F8020B02EB8202A8EB4202303271
:103458004A7000221A70009A981A09B0BDE8F08FD5
:1034680007A904A812F079FC334603F8010B3028A9
:1034780001D008F1FF38019A0AB9002D0CDDB31C00
:103488002E22727008E01C4607A904A812F065FCF9
:1034980004F8010B013D2346002D02DD079A002A9E
:1034A800F1DC179A956098E71346A4E7C8F100087D
:1034B800991C2D225A70A9E71F85EB51676666662D
:1034C8002DE9F04F99B006460D460D920C93002455
:1034D80000E001340D9B5A1C0D92187838B125284C
:1034E80018D02946B047B0F1FF3FF2D10446204634
:1034F80019B0BDE8F08F4FF0010813E001230793DE
:1035080010E0012308930DE04FF001090AE04FF0A5
:10351800010A07E04FF00009CDF81C90C846CA46DA
:10352800CDF820900D9B5A1C0D921F783946C5483E
:1035380014F04EFC70B3002FD9D0302FF2D8202FC2
:10354800F0D3203F102FEDD801A353F827F000BF88
:10355800053500082D3500082D3500080B35000805
:103568002D3500082D3500082D3500082D350008AB
:103578002D3500082D3500082D350008FF340008CA
:103588002D350008173500082D3500082D350008A1
:10359800113500082A2F00F01981A7F13003092BF3
:1035A80040F2258100230A932E2F00F029814FF045
:1035B800FF3B09973946A44814F00AFC002800F09C
:1035C8003D810D9B5A1C0D921F780999682900F0BE
:1035D8002C81002310930F930E930B97782F00F2F2
:1035E8005B8201A353F827F0F7340008A13A0008DA
:1035F800A13A0008A13A0008A13A0008A13A000837
:10360800A13A0008A13A0008A13A0008A13A000826
:10361800A13A0008A13A0008A13A0008A13A000816
:10362800A13A0008A13A0008A13A0008A13A000806
:10363800A13A0008A13A0008A13A0008A13A0008F6
:10364800A13A0008A13A0008A13A0008A13A0008E6
:10365800A13A0008A13A0008A13A0008A13A0008D6
:10366800A13A0008A13A0008A13A0008A13A0008C6
:10367800A13A0008A13A0008A13A00088F3A0008C8
:10368800A13A0008A13A0008A13A0008A13A0008A6
:10369800A13A0008A13A0008A13A0008A13A000896
:1036A800A13A0008A13A0008A13A0008A13A000886
:1036B800A13A0008A13A0008A13A0008A13A000876
:1036C800A13A0008A13A0008A13A0008A13A000866
:1036D800A13A0008A13A0008A13A0008A13A000856
:1036E800A13A0008A13A0008A13A0008A13A000846
:1036F800A13A0008A13A0008A13A000811390008C7
:103708001139000811390008A13A0008A13A000847
:10371800A13A0008A13A0008A13A0008A13A000815
:10372800A13A0008A13A0008A13A0008A13A000805
:10373800A13A0008A13A0008A13A0008A13A0008F5
:10374800A13A0008A13A0008253A0008A13A000861
:10375800A13A0008A13A0008A13A0008A13A0008D5
:10376800A13A0008A13A0008A13A0008A13A0008C5
:10377800A13A000855380008BF3800081139000878
:103788001139000811390008A13A0008BF380008AB
:10379800A13A0008A13A0008A13A0008A13A000895
:1037A80089390008253A0008DB390008A13A0008E1
:1037B800A13A0008F7390008A13A0008253A00089C
:1037C800A13A0008A13A0008253A00080C9B1A1DE6
:1037D8000C921B680A93002B04DB0D9B5A1C0D925C
:1037E8001F78E1E65B420A934FF0010AF5E70DA85E
:1037F80012F0CFFA0A900D9B5A1C0D921F78D3E64F
:103808000D9B5A1C0D921B782A2B09D10C9B1A1D53
:103818000C92D3F800B00D9B5A1C0D921F78C8E685
:103828000DA812F0B6FA8346F5E7682F7FF4D1AEFB
:103838009A1C0D925F7848230993CAE600230993DE
:10384800C7E600BFBCEC0108C4EC01080C9B1A1DBC
:103858000C921B688DF844304FF000080123089340
:10386800C34611AFBBF1000FC0F23B81089BABEB25
:103878000309C144B9F1000FC0F23E81089B03EB74
:10388800090B0A9BA3EB0B0BBAF1000F40F0378131
:10389800BBF1000F40F333815C445B46002B0BF116
:1038A800FF3B40F32C8129462020B047B0F1FF3F71
:1038B800F3D104461BE6099B6C2B06D07A2B1ED04D
:1038C8000C9B1A1D0C921F6803E00C9B1A1D0C928E
:1038D8001F68079B4246394611A812F00FFA089054
:1038E800B8F1000F40F0E880079B002B40F0E8801B
:1038F800002FC0F2E9804FF0000811AFB2E70C9B2F
:103908001A1D0C921F68E4E70C9B073323F007038A
:1039180003F108020C92D3E900230EA90591CDF812
:1039280010B007990391CDF8088008980190009786
:1039380011A8FFF7E1FBB8F1000F08D10799E1B929
:103948009DF844302D2B04D14FF0010801E04FF0D1
:1039580001080E9B0F9A1344109A134403440893CA
:1039680018AB434413F81C3C303B092B01D94FF0EA
:1039780000094FF0FF3B11AF74E74FF00108E8E78B
:10398800099B6C2B19D009DC482B10D0682B1AD155
:103998000C9B1A1D0C921B681C809BE5099B7A2BBB
:1039A80011D10C9B1A1D0C921B681C6092E50C9B94
:1039B8001A1D0C921B681C708CE50C9B1A1D0C922E
:1039C8001B681C6086E50C9B1A1D0C921B681C600A
:1039D80080E50C990B1D0C9378230122096811A826
:1039E80012F05CF908904FF0020811AF3AE70C9B0F
:1039F8001A1D0C921F68BBF1000F07DB00239B45C3
:103A080007DDFA5C002A63D00133F8E76FF0004B5A
:103A1800F4E708934FF00008C34623E7099B6C2B93
:103A280006D07A2B19D00C9B1A1D0C92196803E04A
:103A38000C9B1A1D0C9219686F2F13D0752F1AD072
:103A48003B46089F3A4611A812F028F90890002F23
:103A580043D14FF0000811AF04E70C9B1A1D0C92DC
:103A68001968E9E7089A11A812F032F908904FF09E
:103A7800000811AFF6E611A812F03BF908904FF0D4
:103A8800000811AFEEE629462520B047B0F1FF3F08
:103A980000F0E18001341DE529462520B047B0F14A
:103AA800FF3F00F0DA8029460B98B047B0F1FF3F9E
:103AB80000F0D58002340DE54FF0010811AFD1E6D2
:103AC8004FF0010811AFCDE64FF0010811AFC9E67C
:103AD80008934FF00008C346C4E64FF0020811AF40
:103AE800C0E6B9F1000F04D00A9B089AA3EB0209BB
:103AF800C0E64FF00009C1E64FF00009BEE6089B9A
:103B0800A3EB080A04EB08031C464346002B08F104
:103B1800FF3808DD294617F8010BB047B0F1FF3F21
:103B2800F3D10446E3E423464B4498464B46002B26
:103B380009F1FF3907DD29463020B047B0F1FF3FD2
:103B4800F4D10446D3E4D0440E9B33B90F9B1BBB7E
:103B5800109B002B5CD03B7843E03878A0F1300311
:103B6800092B09D82946B047B0F1FF3F79D00AF1AF
:103B7800FF3A17F8010FF1E70E9BAAEB030A0E9B19
:103B88005A1E0E92002BE1DD29463020B047B0F1D5
:103B9800FF3FF4D10446AAE43C7801372946204681
:103BA800B047B0F1FF3F5ED00AF1FF3A2E2CF3D1B7
:103BB8000F9BAAEB030A0F9B5A1E0F92002BC7DD1F
:103BC80029463020B047B0F1FF3FF4D104468EE4D7
:103BD8002946B047B0F1FF3F47D00AF1FF3A17F83E
:103BE800013F1846A3F13002092AF1D92E2BEFD054
:103BF800109BAAEB030A109B5A1E1092002B07DD9C
:103C080029463020B047B0F1FF3FF4D104466EE4B6
:103C18005346002B0AF1FF3A08DD294617F8010B35
:103C2800B047B0F1FF3FF3D1044660E4BBF1000FA9
:103C380001DC44464EE40BEB08045B46002B0BF119
:103C4800FF3B7FF747AC29462020B047B0F1FF3F44
:103C5800F3D104464BE4044649E4044647E40446E9
:103C680045E4044643E4044641E404463FE400BF17
:103C78004FF01002EFF3118382F31188BFF36F8FB7
:103C880083F31188BFF36F8F024B034A1A60002039
:103C9800704700BF9005002000127A00054B98423B
:103CA80004D3054B984203D3002070470020704787
:103CB8000120704784D20108CC1E020808B5064BC3
:103CC800186018B1054B1B68092B00DC08BD0448B7
:103CD80010F0AAFBFAE700BF3815002008150020ED
:103CE8003808002008B5024810F09EFB08BD00BF48
:103CF8003808002030B589B000220F490F4819F064
:103D0800D5F90F4D00220023CDE9062300240494A1
:103D18000E2303930294019400940A4B4FF44072CB
:103D28000949284619F06DF80849284619F058F845
:103D3800204609B030BD00BFED3C0008F00B002064
:103D4800280C00203D420008D03A0020CCEC0108A5
:103D580008B500F09BFC084812F031F80623282229
:103D68000649074818F0C8FD064B074A1A604FF481
:103D78007A7000F09FFE08BD14150020545F0020E3
:103D88001C15002044030020FB5D010838B5124BC8
:103D98000024BFF35B8F53E8005F43E80042002A2A
:103DA800F9D1BFF35B8F00E001340C4B0C4A9B1A2E
:103DB800B4EB231F0FDA0A4800EB041043685B7961
:103DC800002BF1D02301064AD358DB68002BEBD037
:103DD80029469847E8E738BD0C150020B8D70108F0
:103DE800A8D70108064BBFF35B8F53E8002F0132B9
:103DF80043E800210029F8D1BFF35B8F704700BF6B
:103E08000C150020054B064A9B1AB1EBD30F02D2C2
:103E180052F8310070470020704700BFA8D701084A
:103E2800D0D6010808B50B4BC31A1B1101334268E1
:103E3800137143681960436801225A71064B1B7855
:103E48001BB1054B01221A7008BD044810F0ECFAAA
:103E5800F7E700BFA8D70108F93400203808002088
:103E680038B5154BBFF35B8F53E8002F511C43E85F
:103E780000100028F8D1BFF35B8FDAB9002405E001
:103E8800042200212846FFF7CDFF01340B4B0C4AD2
:103E98009B1AB4EB231F0DDA094D05EB04152B7B98
:103EA800002BF2D02301064AD3585B69002BE7D0D8
:103EB8009847E5E738BD00BF10150020B8D70108BE
:103EC800A8D7010810B582B00446FFF7E7FE10BB7B
:103ED8000022002301A911480FF052FD08B1104C2F
:103EE80019E0019B0122BFF35B8F53E8001F43E8F1
:103EF80000200028F9D1BFF35B8F1F2221460198CB
:103F0800043013F04AFF019C7E2384F823300023F9
:103F180084F824300434204602B010BD1C1500205B
:103F2800D4EC010838B1074A904206D3F0329042E7
:103F380005D30020704700207047002070470120FB
:103F4800704700BF545F0020037A13F0010F00D0C0
:103F580070472DE9F04383B0064612F02FF8074664
:103F6800304612F016F80146384611F04AFF054669
:103F780004E0012303FA04F425EA04056DB3B5FA55
:103F880085F4C4F11F042146304612F005F8814635
:103F9800FFF784FE0028ECD14846FFF7C3FF00284E
:103FA800E7D10F4B9945E4D071898909FFF72AFFBA
:103FB8000246012363F302086FF3C508094B0A4957
:103FC8005B1AC3F3C90363F38F18ADF800803B464F
:103FD8002146064800F07AF8CBE703B0BDE8F08345
:103FE800D4EC010850D70108D0D60108F0EC01083C
:103FF800F8B5064619BB144B1B780BB1002403E037
:10400800FFF7A2FFFAE70134104B114A9B1AB4EBF1
:10401800231F14DA0E4D05EB04156B685B79002B32
:10402800F1D03146284611F0E2FE0028EBD02701F6
:10403800074BDB591B68314628469847E3E730466B
:1040480011F0BEFFF8BD00BFFA340020B8D7010850
:10405800A8D7010838B50446184B1B7803B940B3F4
:104068004FF01003EFF3118583F31188BFF36F8FBF
:10407800134811F0B4FE85F31188BFF36F8F70B148
:10408800104BBFF35B8F53E8002F013A43E8002140
:104098000029F8D1BFF35B8F2146FFF7A9FF14B9B8
:1040A800094B1B6833B9064811F097FE003818BF52
:1040B800012038BDFFF76AFEF5E700BFF93400209C
:1040C80014150020081500200C1500202DE9F041DA
:1040D80082B080460F4616461D4600F0FBFA04469D
:1040E80040B101234360002202814FF0000362F3D4
:1040F800000303724CB1C4F81080637A032262F3A0
:10410800071363726761A661E561002C30D0BDF8C2
:10411800203063812A4B1B689847E060294BBFF326
:104128005B8F53E8002F013243E800210029F8D1C2
:10413800BFF35B8F4FF01003EFF3118583F3118802
:10414800BFF36F8F2146204811F03DFE85F311889B
:10415800BFF36F8F1D4B1B786BB91D4B1B681BB1D1
:10416800184A1268012A16D0164A12680A2A1DD05F
:1041780002B0BDE8F0814FF01003EFF3118483F330
:104188001188BFF36F8F0020FFF764FF84F3118855
:10419800BFF36F8FECE700220023CDE9002342F242
:1041A800107200230B4810F02FFCE1E7002BDFD042
:1041B800084818F087FF084810F036F9D8E700BF1C
:1041C800440300200815002014150020FA340020AC
:1041D80038150020F00B002038080020124B1B78FF
:1041E80003B1704710B5FFF73BFE002400E001342F
:1041F8000E4B0F4A9B1AB4EB231F0CDA0C4800EB4A
:10420800041043685B79002BF1D02301084AD35886
:104218001B699847EBE70020FFF71CFF0028FAD13D
:10422800014B01221A7010BDFA340020B8D70108DA
:10423800A8D7010808B5FFF713FE10F0EFF8FFF74D
:104248003DFD06E04FF0FF324FF0FF33044810F019
:1042580013F90020FFF7FEFE0028FAD1F2E700BFAD
:1042680038080020F0B583B006460D46174600F022
:1042780031FA044640B101234360002101814FF027
:10428800000361F30003037234B12661637A0122EB
:1042980062F3071363726561002C2ED067812A4B85
:1042A8001B689847E060294BBFF35B8F53E8002FEA
:1042B800013243E800210029F8D1BFF35B8F4FF0AA
:1042C8001003EFF3118583F31188BFF36F8F214635
:1042D8001F4811F078FD85F31188BFF36F8F1D4BD0
:1042E8001B7863B91C4B1B681BB1184A1268012A5A
:1042F80015D0164A12680A2A1CD003B0F0BD4FF038
:104308001003EFF3118483F31188BFF36F8F00203C
:10431800FFF7A0FE84F31188BFF36F8FEDE700224B
:104328000023CDE9002342F2107200230B4810F05D
:104338006BFBE2E7002BE0D0084818F0C3FE084802
:1043480010F072F8D9E700BF4403002008150020D8
:1043580014150020FA34002038150020F00B002036
:10436800380800202DE9F04182B007460E46154670
:10437800984600F0AFF9044640B10123436000229B
:1043880002814FF0000362F3000303723CB127611E
:10439800637A022262F3071363726661A561002CD7
:1043A8002FD0A4F80A802A4B1B689847E060294B55
:1043B800BFF35B8F53E8002F013243E80021002947
:1043C800F8D1BFF35B8F4FF01003EFF3118583F340
:1043D8001188BFF36F8F21461F4811F0F4FC85F355
:1043E8001188BFF36F8F1D4B1B786BB91C4B1B6873
:1043F8001BB1184A1268012A16D0164A12680A2AEE
:104408001DD002B0BDE8F0814FF01003EFF3118426
:1044180083F31188BFF36F8F0020FFF71BFE84F32F
:104428001188BFF36F8FECE700220023CDE900234A
:1044380042F2107200230B4810F0E6FAE1E7002B75
:10444800DFD0084818F03EFE07480FF0EDFFD8E728
:10445800440300200815002014150020FA34002019
:1044680038150020F00B00203808002030B583B044
:104478001C4611F0E9FD00282FD0054644812A4B3F
:104488001B689847E860294BBFF35B8F53E8002F00
:10449800013243E800210029F8D1BFF35B8F4FF0C8
:1044A8001003EFF3118483F31188BFF36F8F29464C
:1044B8001F4811F088FC84F31188BFF36F8F1D4BE0
:1044C8001B7863B91C4B1B681BB1184A1268012A78
:1044D80015D0164A12680A2A1CD003B030BD4FF016
:1044E8001003EFF3118483F31188BFF36F8F00205B
:1044F800FFF7B0FD84F31188BFF36F8FEDE700225B
:104508000023CDE9002342F2107200230B4810F07B
:104518007BFAE2E7002BE0D0084818F0D3FD084802
:104528000FF082FFD9E700BF4403002008150020E0
:1045380014150020FA34002038150020F00B002054
:104548003808002070B582B005460E4600F0C2F863
:10455800044640B101234360002202814FF000036A
:1045680062F30003037204B12561002C2ED066812A
:10457800294B1B689847E060284BBFF35B8F53E8D3
:10458800002F013243E800210029F8D1BFF35B8FE7
:104598004FF01003EFF3118583F31188BFF36F8F8A
:1045A80021461F4811F00FFC85F31188BFF36F8F68
:1045B8001C4B1B7863B91C4B1B681BB1174A12684C
:1045C800012A15D0154A12680A2A1CD002B070BDFB
:1045D8004FF01003EFF3118483F31188BFF36F8F4B
:1045E8000020FFF737FD84F31188BFF36F8FEDE7E5
:1045F80000220023CDE9002342F2107200230B4869
:1046080010F002FAE2E7002BE0D0084818F05AFD53
:1046180007480FF009FFD9E74403002008150020D8
:1046280014150020FA34002038150020F00B002063
:104638003808002000B583B004380190BFF35B8FC1
:1046480050E8003F5A1E40E800210029F8D1BFF386
:104658005B8F012B02D003B05DF804FB01A902486F
:104668000FF0C4F9F7E700BF1C15002010B582B0A1
:104678000190019B33B11C6801A903480FF0B6F9FA
:104688000194F6E702B010BD3C15002008B54023A0
:1046980020220249024818F02FF908BD4460002082
:1046A8003C15002010B582B0002301930120FFF7CC
:1046B800D1FC0446FFF796FB0022002301A9044819
:1046C8000FF05EF908B1002CF0D1019802B010BDCE
:1046D8003C15002000B583B00023019311F0B2FB14
:1046E80050B10022002301A907480FF049F930B959
:1046F800019803B05DF804FB00220023F3E7FFF7FD
:10470800D1FF0190F4E700BF3C150020F0B583B05D
:104718000190044611F03DFC237A13F0010F01D1FA
:10472800064650BB019B1A7A12F0020F28D101A944
:1047380015480FF05BF903B0F0BD019811F03EFC8D
:10474800314611F05EFB074688B9EBE72846FFF7CC
:1047580071FF0134B442E5D22146019811F01CFCE6
:104768000546FFF7DFFB0028F3D0002FE5D027FA36
:1047780004F313F0010FECD0E8E700273C46E9E723
:104788005869FFF773FFD2E73C1500200EB400B557
:1047980082B0014603AB53F8042B0193044810F090
:1047A80091FD002002B05DF804EB03B0704700BF34
:1047B800F1630108F0B585B011F0440F05D01A4B2C
:1047C8001C6834B9002005B0F0BD1849FFF7DEFFBA
:1047D800F9E7174B1968B2FBF1F1B1FBF4F5154A8B
:1047E800A2FB0532D20A4FF4616606FB1256124B41
:1047F800A3FB06735B0904FB15114FF47A7505FBDF
:1048080001F1B1FBF4F707FB141105FB01F1B1FB52
:10481800F4F402940197C3EB0311A6EB8101009114
:104828000649FFF7B3FFCEE75815002034ED01081D
:104838005C150020C5B3A2918988888840ED0108DD
:1048480061B108B52AB1064A52F8232012B9054ABF
:1048580000E0044A0449FFF799FF08BD704700BF0C
:10486800B0ED01085CED01089C02020811F0100F80
:104878000BD108B511F0200F03D00449FFF786FFCC
:1048880008BD0349FFF782FFFAE7704764ED0108A6
:1048980068ED01082DE9F04105460F461646984691
:1048A8000699FFF7E3FF0024444505DA2349284623
:1048B800FFF76CFF0134F7E7002409E01F49284699
:1048C800FFF764FF0BE01E492846FFF75FFF01343E
:1048D8000F2C0CDC002C02DD14F0070FEED0B442D4
:1048E800F1D23A5D17492846FFF750FFEFE716491E
:1048F8002846FFF74BFF002409E010492846FFF738
:1049080045FF0BE011492846FFF740FF01340F2C03
:1049180012DC002C02DD14F0070FEED0B44206D2F0
:104928003A5DA2F120035E2BECD92E22EAE7034977
:104938002846FFF72BFFE9E7BDE8F08188ED01087D
:1049480074ED01086CED010878ED01087CED0108B3
:10495800F8B5044616461D4649B9002786B1012315
:10496800079A934013F0100F16D10C4E09E00C4B28
:10497800079A53F822200B49FFF708FF0746EDE78F
:10498800064E06992846FFF73DFA0246314620466C
:10499800FFF7FCFE3844F8BD034EF2E700E00108DB
:1049A800ECED010884ED010880ED01082DE9F043E4
:1049B80089B007460E469146984611F0FFFA02461E
:1049C8000E493046FFF7E2FE0024102503952346E2
:1049D80003AA0DEB0501384611F04AFB039A52B1C0
:1049E800CDF800804B460DEB05013046FFF752FF2E
:1049F800039D2C44E9E709B0BDE8F0839C02020856
:104A0800F0B583B006460C4600273D460DE0A26887
:104A1800134413F8017C0A2F14BF002701272046EE
:104A280011F0D5FC019B1D4473B1E36801932B463B
:104A380001AAA168304611F01BFB6368019A1A604D
:104A4800019B002BEBD0E2E70FB903B0F0BD0249A0
:104A58002046FFF79BFEF8E78CED010870B582B0A1
:104A68000446056842F20F738B4228BF0B460E4A74
:104A78000521684610F0BFFD064663685B680B2297
:104A88000A49284611F0FCFA63685B6832466946B1
:104A9800284611F0F5FA63685B681B22044928462A
:104AA80011F0EEFA02B070BD78F50108E0ED0108EA
:104AB800C4ED0108074B01221A60074B984205D93B
:104AC8004008044A13685B001360F6E7034B18605C
:104AD800704700BF5C15002040420F0058150020A9
:104AE80070B506460D460024AC4207D2044B186840
:104AF800315D83685B6898470134F5E7284670BDE7
:104B08007415002008B503480EF024FD024B186008
:104B180008BD00BF88EC01087415002008B50248DC
:104B280011F055FC08BD00BF2CEE010808B502487D
:104B3800FFF794FF08BD00BF2CEE010810B50C4626
:104B4800084611F019FA0F222146034811F068FCB3
:104B5800204611F035FA10BD2CEE010810B584B0CE
:104B680007240294044C0194BDF81840009415F0F1
:104B7800D9F904B010BD00BF8C03002008B54FF070
:104B88000002032363F302026FF3C502074B0848D0
:104B98001B1AC3F3C90363F38F12012904D0054913
:104BA8000548FFF75FFB08BD0449F9E7D0D60108BF
:104BB800D0D6010808F10108ECEE0108C4F001089C
:104BC80010B586B0074C24788DF81740012402945C
:104BD8000DF117040194BDF82040009415F0A2F9D6
:104BE80006B010BDA305002000B589B08DF80700F8
:104BF800642818D80E4B18701822002102A813F048
:104C08005EF90C4B03930DF1070304930123ADF8F0
:104C1800143002A900200BF0E5FB10F1390F05D084
:104C280009B05DF804FB6FF01500F9E70020F7E71D
:104C3800A30500201CEF0108F0B585B004460D4619
:104C4800143017F07BFE28460EF084FCA062002882
:104C58002AD083681B699847E062002838D0A06A88
:104C680083681B6998470368013B1F2B44D8A06AD7
:104C7800216801AA16F014FC002851D1A389002B41
:104C880062D00299B3FBF1F201FB1233002B5BD126
:104C9800E389012B6CD9204611F0E9FE064600286D
:104CA8007AD0304605B0F0BD4FF00001012363F320
:104CB80002016FF3C501514B514A9B1AC3F3C90353
:104CC80063F38F114F48FFF73DFC6FF00506E8E7E7
:104CD8004FF00001012363F302016FF3C501474B55
:104CE800474A9B1AC3F3C90363F38F114648FFF77A
:104CF80029FC6FF01506D4E74FF00001012363F398
:104D080002016FF3C5013D4B3D4A9B1AC3F3C9032A
:104D180063F38F113D48FFF715FC6FF01506C0E7E8
:104D28004FF00001012363F302016FF3C501334B18
:104D3800334A9B1AC3F3C90363F38F113448FFF74F
:104D480001FC6FF01506ACE74FF00001012363F397
:104D580002016FF3C501294B294A9B1AC3F3C90302
:104D680063F38F112B48FFF7EDFB6FF0150698E7FB
:104D78004FF00001012363F302016FF3C5011F4BDC
:104D88001F4A9B1AC3F3C90363F38F112248FFF725
:104D9800D9FB6FF0150684E70123237403274FF02E
:104DA800000367F302036FF3C503144D144AAD1AE9
:104DB800C5F3C90565F38F13A289E1891748FFF781
:104DC800D1FA4FF0000367F302036FF3C50365F3ED
:104DD8008F1361688AB2090C1148FFF7C3FA4FF0C4
:104DE800000367F302036FF3C50365F38F13A1682C
:104DF8008AB2090C0B48FFF7B5FA52E748D7010801
:104E0800D0D601086CEF010888EF0108ACEF010863
:104E1800CCEF0108E4EF0108F8EF01081CF00108E5
:104E280034F0010848F001082DE9F04F87B00192ED
:104E380090F810B0BBF1000F27D004460E469946F3
:104E4800C36A1B68D9B2012933D901F1070A4A425A
:104E58000AEA020A01292FD9DBB209EB030808F193
:104E6800FF385B4208EA0308A3890AEB4A029B1A47
:104E78004B45C0F09680B9F1000F03D0019B002B81
:104E880000F09280636803931CE04FF00001012357
:104E980063F302016FF3C501454B464A9B1AC3F3FE
:104EA800C90363F38F114448FFF74CFB6FF00C05FF
:104EB80071E04FF0080ACDE7C846D5E76268039B62
:104EC8009A4212D0039F04AA03A9204611F0ECFBD2
:104ED800054600285FD1BDF81030B342EED104A8D2
:104EE80011F09DFB0028E9D101E04FF0000BBBF168
:104EF800000F18D03F0C3F04BDF812103944B9F127
:104F0800000F03D1BDF8143083B944E0BDF8143064
:104F18004B450BD14B46019A204611F008FB00285F
:104F280004DC054637E0B9F1000F34D0B8F1000FC2
:104F38000CD01AFA88F7BFB204F114084FF0FF3208
:104F48004FF0FF3340460EF033FE0CE00027F3E746
:104F58004B46019A3146204611F03AFD0546B8B94C
:104F68004D4615E00135E3899D420FD06268A3687C
:104F78003B449A42ECD2204611F049FD78B92046CC
:104F880011F091FC0028EDD0054601E06FF01B05FB
:104F980040460EF097FE284607B0BDE8F08F05465C
:104FA800F6E76FF01505F6E76FF01505F3E700BFB4
:104FB80048D70108D0D6010858EF01082DE9F04775
:104FC80084B09946BDF83080037CA3B104460F46EF
:104FD8009246C36A1B68DAB2012A20D913460732FF
:104FE8005B421A40A389A3EB42034B4557D366683B
:104FF8000396002519E04FF00001012363F3020135
:105008006FF3C5012A4B2B4A9B1AC3F3C90363F3F9
:105018008F112948FFF796FA6FF00C0334E0082245
:10502800E0E76268039B9A4215D0454513D8039E72
:1050380001AA03A9204611F037FB034620BBBDF89F
:105048000430BB42EDD101A811F0E9FA0028E8D1FB
:105058000135ADB2E5E76268039B9A4218D0BDF806
:105068000830FBB1454520D3360C3604BDF8061090
:105078004B4528BF4B4652463144204611F02CFA86
:10508800034608B9BDF80830184604B0BDE8F087F3
:10509800BDF80430BB42E2D06FF00103F4E76FF0D3
:1050A8001503F1E76FF00103EEE76FF00103EBE79B
:1050B80048D70108D0D6010858EF010810B5037881
:1050C800C3F341130A33064C54F8233023B19847ED
:1050D800002803DB012010BD0020FCE70020FAE7D0
:1050E800781500200A30024B43F82010704700BFA3
:1050F80078150020014B5862704700BF78150020D2
:10510800F0B4050A291FC9B201291ED9C6B2072D54
:105118001ED81049496A002700E00144087838B1D0
:105128004C78AC42F9D1BE4201D00137F5E70120F5
:1051380060B11960022D02D00B78136006E08B78FD
:10514800C97843EA0123136000E00020F0BC7047EF
:105158000020FBE778150020034B93F8BA000038CD
:1051680018BF0120704700BF78150020074B5B6A05
:1051780000E013441A783AB159780229F9D119791B
:105188008142F6D901207047002070477815002029
:1051980070B4164B164A9B1A9B10164E06FB03F664
:1051A80030F080031DD00024B44218D204EBC402AE
:1051B8000F4B03EB8202156A002304EBC4020C496F
:1051C80001EB8202127F9A4207D905EBC3021279DA
:1051D800824208D00133DBB2EFE70134E4E7002074
:1051E80002E0012000E0012070BC7047700A002036
:1051F8004C0A0020398EE338014B9861704700BF94
:1052080078150020014BD861704700BF7815002041
:105218002DE9F0410646144B144AA3EB02084FEA65
:10522800A803134A02FB03F80025454518D205EBED
:10523800C5030E4A02EB83031F6A002405EBC5036E
:105248000A4A02EB83031B7FA34207D907EBC4007A
:10525800B047002805DB0134E4B2EFE70135E4E7A5
:105268000020BDE8F08100BF700A00204C0A002031
:10527800398EE338F8B5134F134BFF1ABB10134F91
:1052880007FB03F7002300E00133BB4216D203EB10
:10529800C3040D4D05EB840466680D4C646AA64290
:1052A800F2D303EBC30405EB84042469002CEBD090
:1052B800B6780579AE42E7D1A04701E06FF0220049
:1052C800F8BD00BF700A00204C0A0020398EE33870
:1052D80078150020F8B5154F154BFF1ABB10154F60
:1052E80007FB03F7002300E00133BB421BD203EBAB
:1052F800C3040F4D05EB840464680F4D6D6AAC421E
:10530800F2D303EBC3050A4E06EB8505AD69002D04
:10531800EAD094F802C00679B44502D06479012C29
:10532800E2D1A84701E06FF02200F8BD700A002022
:105338004C0A0020398EE338781500202DE9F8430F
:10534800814688461746104E104BF61AB310104E79
:1053580006FB03F6002400E00134A6420FD904EB53
:10536800C4030A4D05EB83035B69002BF4D03A466E
:1053780041464846984703460028EDD101E06FF0C2
:1053880022031846BDE8F883700A00204C0A002062
:10539800398EE33800B583B083788DF80030838880
:1053A800ADF80230C37803F003038DF80430684683
:1053B80001F0CEFD10F1450F10D018BB9DF800008C
:1053C80001F06AFE10F1450F31D0002843D10120C9
:1053D8002B4B83F8B90003B05DF804FB4FF00002D3
:1053E800022363F302026FF3C502264B26495B1AB8
:1053F800C3F3C90363F38F129DF800102348FEF727
:1054080031FFDBE74FF00002012363F302026FF381
:10541800C5021C4B1C495B1AC3F3C90363F38F1203
:105428009DF800101A48FEF71DFF0020D3E74FF043
:105438000002022363F302026FF3C502114B124903
:105448005B1AC3F3C90363F38F129DF80010114868
:10545800FEF708FFBBE74FF00002012363F30202E7
:105468006FF3C502074B08495B1AC3F3C90363F31B
:105478008F129DF800100848FEF7F4FE0020AAE7F6
:105488007815002088D70108D0D6010864F00108F3
:1054980088F00108ACF00108CCF001082DE9F041D2
:1054A80082B08DF807001A4B5C6A70B30E4600276D
:1054B800FF25A84603E094F8038023781C4423784A
:1054C800C3B16378042BF6D0052B08D0022BF4D196
:1054D80065799DF80730AB42EFD10127EDE79DF8DC
:1054E80007309D42E9D1B045E7D12046FFF752FF8A
:1054F8000746E2E7064BDB691BB10DF10701032004
:105508009847384602B0BDE8F0810127F9E700BFA7
:105518007815002070B54488868815684378092B6B
:105528002AD8DFE803F005292929290C1129181F91
:1055380000236B700120287002230B601DE0E0B28D
:1055480001F028FC012018E013460A46314620469F
:10555800FFF7D6FD11E0094B93F8BA302B70012004
:1055680008600AE0E4B200212046FFF797FF20B167
:10557800024B83F8BA4000E0002070BD7815002087
:1055880010B58478204600F0D3FD204601F0C2FD16
:1055980010F1450F02D0A8B9012010BD4FF000024C
:1055A800022363F302026FF3C502104B10495B1A22
:1055B800C3F3C90363F38F1221460E48FEF752FE68
:1055C8000120EAE74FF00002012363F302026FF3C0
:1055D800C502064B06495B1AC3F3C90363F38F126E
:1055E80021460548FEF73EFE0020D6E788D7010889
:1055F800D0D60108F0F0010814F101082DE9F047B0
:1056080006468946154B5C6A4FF00008FF252F4671
:10561800C24605E0E778A578B54211D023781C4446
:1056280023788BB16378042BF4D0052BF6D1AE42E6
:10563800F4D14A463946204611F0FCFA8046EDE797
:105648004F45EBD1A246E9E7044BDB6913B151465C
:10565800072098474046BDE8F08700BF781500202E
:105668002DE9F04182B004460E4605798DF80750C1
:10567800D2F800802846FFF78BFD074630B16378E3
:10568800012B18D0032B3FD023B10027384602B096
:10569800BDE8F08135F0800303D0FFF75DFD0028F9
:1056A80059D04146284611F0D6FD002388F801302C
:1056B80002233360EAE76388002B4ED135F080037C
:1056C80003D0FFF749FD002849D04FF0000203231B
:1056D80063F302026FF3C502244B25495B1AC3F337
:1056E800C90363F38F1229462248FEF7BBFD9DF8D4
:1056F800070001F0A1FC204BDB69002BC6D00DF19F
:10570800070109209847C1E7638853BB35F0800338
:1057180002D0FFF721FD30B34FF00002032363F3FB
:1057280002026FF3C502114B11495B1AC3F3C90397
:1057380063F38F1229461148FEF794FD9DF8070080
:1057480001F04AFC0C4BDB69002B9FD00DF10701DF
:10575800082098479AE7074698E7002796E70746FC
:1057680094E7002792E7074690E700BF88D701082B
:10577800D0D6010838F101087815002050F1010849
:1057880070B504460D461646184B9B690BB19847F1
:1057980048B1237803F01F03012B0DD0022B13D03F
:1057A80013B16FF0150070BD324629462046FFF749
:1057B800B1FE88B10020F6E732462946204611F0AE
:1057C80042FA60B10020EEE7324629462046FFF74C
:1057D80047FF38B10020E6E76FF01500E3E76FF008
:1057E8001500E0E76FF01500DDE700BF7815002031
:1057F800F8B5154F154BFF1ABB10154F07FB03F7EC
:105808000025AF421BD905EBC503104A02EB830301
:105818001E6A002405EBC5030C4A02EB83031B7FB9
:105828009C420AD206EBC40356F83410187911F0DA
:1058380007FD30B90134E4B2ECE70135E1E70020B7
:1058480001E04FF0FF30F8BD700A00204C0A00203C
:10585800398EE338F8B506460F461A4D1A4BED1A3D
:10586800AB101A4D05FB03F5031FDBB2012B01D961
:10587800002411E0164B93F8B930002BF8D000F053
:1058880089FC042EF4D11348FFF7C2FC104B002208
:1058980083F8B920ECE70134AC420BD204EBC40026
:1058A800094B03EB8000C368002BF4D03A4631461D
:1058B8009847F0E7064B1B6A13B1394630469847BC
:1058C800F8BD00BF700A00204C0A0020398EE3386A
:1058D80078150020A96C01082DE9F047064689468D
:1058E80090461F460A2518E0022363F3020A6FF365
:1058F800C50A114B114A9B1AC3F3C90363F38F1AE4
:10590800524631460E48FEF7ADFC0EF02BFD14F161
:105918000B0F0DD16B1E5DB11D463B4642464946F5
:10592800304601F025FC044610F10B0FEFD1DBE700
:105938002046BDE8F08700BF88D70108D0D6010807
:1059480064F1010830B583B0134B1B7DCBB9054614
:10595800114CE268019201ABA1688020FFF7BCFFFF
:105968000199A2680A44A260E3685B1AE36083B9FC
:1059780023699D420DDD13F03F0F0AD101222275E4
:1059880007E00021044B19750B460A46802001F0F8
:10599800EFFB03B030BD00BF7815002010B584B010
:1059A80000230393044600B949B3002C40F09680C5
:1059B800524BDA68002A79DD03AB50498968002028
:1059C80011F059FC00287EDB03984C4A9168014489
:1059D8009160D3681B1AD360002B40F08180104679
:1059E80002F1380342F8083F00F11001FFF766FBA7
:1059F80000286FD0414BD888FFF7A4FF70E0082239
:105A080001A911F038FC002830DB9DF804103B4B4D
:105A180019709DF805205A70BDF806205A80BDF807
:105A280008209A80BDF80A20DA80802A01D9CB099B
:105A380020D0324B03F138009860DA601A610020F8
:105A480018750AB1CB094BD02C4800F1080200F1B7
:105A58001001FFF733FB28B3284BD8881A69824214
:105A6800A8BF0246DA60FFF76DFF39E0802001F039
:105A7800B3FA35E04FF00001012363F302016FF33D
:105A8800C5011F4B1F4A9B1AC3F3C90363F38F1148
:105A98001D48FEF757FD802001F09EFA002001F016
:105AA8009BFA1DE0802001F097FA19E003AB002271
:105AB80012498968104611F0DEFB002810DA8020B0
:105AC80001F08AFA0CE0802001F086FA002001F04B
